{
  "contractName": "Wallet",
  "abi": [
    {
      "inputs": [
        {
          "internalType": "string",
          "name": "_name",
          "type": "string"
        },
        {
          "internalType": "uint256",
          "name": "_numConfirmationsRequired",
          "type": "uint256"
        },
        {
          "internalType": "address[]",
          "name": "_owners",
          "type": "address[]"
        }
      ],
      "stateMutability": "payable",
      "type": "constructor",
      "payable": true
    },
    {
      "anonymous": false,
      "inputs": [
        {
          "indexed": true,
          "internalType": "address",
          "name": "owner",
          "type": "address"
        }
      ],
      "name": "AddOwner",
      "type": "event"
    },
    {
      "anonymous": false,
      "inputs": [
        {
          "indexed": true,
          "internalType": "address",
          "name": "owner",
          "type": "address"
        },
        {
          "indexed": true,
          "internalType": "uint256",
          "name": "reqIndex",
          "type": "uint256"
        }
      ],
      "name": "ConfirmRequestOwner",
      "type": "event"
    },
    {
      "anonymous": false,
      "inputs": [
        {
          "indexed": true,
          "internalType": "address",
          "name": "owner",
          "type": "address"
        },
        {
          "indexed": true,
          "internalType": "uint256",
          "name": "txIndex",
          "type": "uint256"
        }
      ],
      "name": "ConfirmTransaction",
      "type": "event"
    },
    {
      "anonymous": false,
      "inputs": [
        {
          "indexed": true,
          "internalType": "address",
          "name": "sender",
          "type": "address"
        },
        {
          "indexed": false,
          "internalType": "uint256",
          "name": "amount",
          "type": "uint256"
        },
        {
          "indexed": false,
          "internalType": "uint256",
          "name": "balance",
          "type": "uint256"
        }
      ],
      "name": "Deposit",
      "type": "event"
    },
    {
      "anonymous": false,
      "inputs": [
        {
          "indexed": true,
          "internalType": "address",
          "name": "owner",
          "type": "address"
        },
        {
          "indexed": true,
          "internalType": "uint256",
          "name": "reqIndex",
          "type": "uint256"
        }
      ],
      "name": "ExecuteRequestOwner",
      "type": "event"
    },
    {
      "anonymous": false,
      "inputs": [
        {
          "indexed": true,
          "internalType": "address",
          "name": "owner",
          "type": "address"
        },
        {
          "indexed": true,
          "internalType": "uint256",
          "name": "txIndex",
          "type": "uint256"
        }
      ],
      "name": "ExecuteTransaction",
      "type": "event"
    },
    {
      "anonymous": false,
      "inputs": [
        {
          "indexed": true,
          "internalType": "address",
          "name": "owner",
          "type": "address"
        },
        {
          "indexed": true,
          "internalType": "uint256",
          "name": "txIndex",
          "type": "uint256"
        }
      ],
      "name": "RevokeConfirmation",
      "type": "event"
    },
    {
      "anonymous": false,
      "inputs": [
        {
          "indexed": true,
          "internalType": "address",
          "name": "owner",
          "type": "address"
        }
      ],
      "name": "RevokeOwner",
      "type": "event"
    },
    {
      "anonymous": false,
      "inputs": [
        {
          "indexed": true,
          "internalType": "address",
          "name": "sender",
          "type": "address"
        },
        {
          "indexed": true,
          "internalType": "uint256",
          "name": "reqIndex",
          "type": "uint256"
        },
        {
          "indexed": true,
          "internalType": "address",
          "name": "owner",
          "type": "address"
        },
        {
          "indexed": false,
          "internalType": "bytes",
          "name": "data",
          "type": "bytes"
        },
        {
          "indexed": false,
          "internalType": "bool",
          "name": "addOwner",
          "type": "bool"
        }
      ],
      "name": "SubmitRequestOwner",
      "type": "event"
    },
    {
      "anonymous": false,
      "inputs": [
        {
          "indexed": true,
          "internalType": "address",
          "name": "owner",
          "type": "address"
        },
        {
          "indexed": true,
          "internalType": "uint256",
          "name": "txIndex",
          "type": "uint256"
        },
        {
          "indexed": true,
          "internalType": "address",
          "name": "to",
          "type": "address"
        },
        {
          "indexed": false,
          "internalType": "uint256",
          "name": "value",
          "type": "uint256"
        },
        {
          "indexed": false,
          "internalType": "bytes",
          "name": "data",
          "type": "bytes"
        }
      ],
      "name": "SubmitTransaction",
      "type": "event"
    },
    {
      "inputs": [
        {
          "internalType": "uint256",
          "name": "",
          "type": "uint256"
        },
        {
          "internalType": "address",
          "name": "",
          "type": "address"
        }
      ],
      "name": "isConfirmed",
      "outputs": [
        {
          "internalType": "bool",
          "name": "",
          "type": "bool"
        }
      ],
      "stateMutability": "view",
      "type": "function",
      "constant": true
    },
    {
      "inputs": [],
      "name": "name",
      "outputs": [
        {
          "internalType": "string",
          "name": "",
          "type": "string"
        }
      ],
      "stateMutability": "view",
      "type": "function",
      "constant": true
    },
    {
      "inputs": [],
      "name": "numConfirmationsRequired",
      "outputs": [
        {
          "internalType": "uint256",
          "name": "",
          "type": "uint256"
        }
      ],
      "stateMutability": "view",
      "type": "function",
      "constant": true
    },
    {
      "inputs": [
        {
          "internalType": "uint256",
          "name": "",
          "type": "uint256"
        },
        {
          "internalType": "address",
          "name": "",
          "type": "address"
        }
      ],
      "name": "reqConfirmed",
      "outputs": [
        {
          "internalType": "bool",
          "name": "",
          "type": "bool"
        }
      ],
      "stateMutability": "view",
      "type": "function",
      "constant": true
    },
    {
      "inputs": [
        {
          "internalType": "uint256",
          "name": "",
          "type": "uint256"
        }
      ],
      "name": "requests",
      "outputs": [
        {
          "internalType": "address",
          "name": "owner",
          "type": "address"
        },
        {
          "internalType": "uint256",
          "name": "numConfirmations",
          "type": "uint256"
        },
        {
          "internalType": "bytes",
          "name": "data",
          "type": "bytes"
        },
        {
          "internalType": "bool",
          "name": "executed",
          "type": "bool"
        },
        {
          "internalType": "bool",
          "name": "addOwner",
          "type": "bool"
        }
      ],
      "stateMutability": "view",
      "type": "function",
      "constant": true
    },
    {
      "inputs": [
        {
          "internalType": "uint256",
          "name": "",
          "type": "uint256"
        }
      ],
      "name": "transactions",
      "outputs": [
        {
          "internalType": "address",
          "name": "destination",
          "type": "address"
        },
        {
          "internalType": "uint256",
          "name": "value",
          "type": "uint256"
        },
        {
          "internalType": "bytes",
          "name": "data",
          "type": "bytes"
        },
        {
          "internalType": "uint256",
          "name": "numConfirmations",
          "type": "uint256"
        },
        {
          "internalType": "bool",
          "name": "executed",
          "type": "bool"
        },
        {
          "internalType": "address",
          "name": "token",
          "type": "address"
        }
      ],
      "stateMutability": "view",
      "type": "function",
      "constant": true
    },
    {
      "stateMutability": "payable",
      "type": "receive",
      "payable": true
    },
    {
      "inputs": [
        {
          "internalType": "address",
          "name": "_owner",
          "type": "address"
        },
        {
          "internalType": "bytes",
          "name": "_data",
          "type": "bytes"
        },
        {
          "internalType": "bool",
          "name": "_addOwner",
          "type": "bool"
        }
      ],
      "name": "submitRequestOwner",
      "outputs": [],
      "stateMutability": "nonpayable",
      "type": "function"
    },
    {
      "inputs": [
        {
          "internalType": "uint256",
          "name": "_reqIndex",
          "type": "uint256"
        }
      ],
      "name": "confirmRequestOwner",
      "outputs": [],
      "stateMutability": "nonpayable",
      "type": "function"
    },
    {
      "inputs": [
        {
          "internalType": "uint256",
          "name": "_reqIndex",
          "type": "uint256"
        }
      ],
      "name": "executeRequestOwner",
      "outputs": [],
      "stateMutability": "nonpayable",
      "type": "function"
    },
    {
      "inputs": [
        {
          "internalType": "address",
          "name": "_destination",
          "type": "address"
        },
        {
          "internalType": "uint256",
          "name": "_value",
          "type": "uint256"
        },
        {
          "internalType": "bytes",
          "name": "_data",
          "type": "bytes"
        },
        {
          "internalType": "address",
          "name": "_token",
          "type": "address"
        }
      ],
      "name": "submitTransaction",
      "outputs": [],
      "stateMutability": "nonpayable",
      "type": "function"
    },
    {
      "inputs": [
        {
          "internalType": "uint256",
          "name": "_txIndex",
          "type": "uint256"
        }
      ],
      "name": "confirmTransaction",
      "outputs": [],
      "stateMutability": "nonpayable",
      "type": "function"
    },
    {
      "inputs": [
        {
          "internalType": "uint256",
          "name": "_txIndex",
          "type": "uint256"
        }
      ],
      "name": "executeTransaction",
      "outputs": [],
      "stateMutability": "nonpayable",
      "type": "function"
    },
    {
      "inputs": [
        {
          "internalType": "uint256",
          "name": "_txIndex",
          "type": "uint256"
        }
      ],
      "name": "revokeConfirmation",
      "outputs": [],
      "stateMutability": "nonpayable",
      "type": "function"
    },
    {
      "inputs": [],
      "name": "getBalance",
      "outputs": [
        {
          "internalType": "uint256",
          "name": "",
          "type": "uint256"
        }
      ],
      "stateMutability": "view",
      "type": "function",
      "constant": true
    },
    {
      "inputs": [],
      "name": "getOwners",
      "outputs": [
        {
          "internalType": "address[]",
          "name": "",
          "type": "address[]"
        }
      ],
      "stateMutability": "view",
      "type": "function",
      "constant": true
    },
    {
      "inputs": [],
      "name": "getTransactions",
      "outputs": [
        {
          "components": [
            {
              "internalType": "address",
              "name": "destination",
              "type": "address"
            },
            {
              "internalType": "uint256",
              "name": "value",
              "type": "uint256"
            },
            {
              "internalType": "bytes",
              "name": "data",
              "type": "bytes"
            },
            {
              "internalType": "uint256",
              "name": "numConfirmations",
              "type": "uint256"
            },
            {
              "internalType": "bool",
              "name": "executed",
              "type": "bool"
            },
            {
              "internalType": "address",
              "name": "token",
              "type": "address"
            }
          ],
          "internalType": "struct Wallet.Transaction[]",
          "name": "",
          "type": "tuple[]"
        }
      ],
      "stateMutability": "view",
      "type": "function",
      "constant": true
    },
    {
      "inputs": [],
      "name": "getTokens",
      "outputs": [
        {
          "internalType": "address[]",
          "name": "",
          "type": "address[]"
        }
      ],
      "stateMutability": "view",
      "type": "function",
      "constant": true
    },
    {
      "inputs": [],
      "name": "getTransactionCount",
      "outputs": [
        {
          "internalType": "uint256",
          "name": "",
          "type": "uint256"
        }
      ],
      "stateMutability": "view",
      "type": "function",
      "constant": true
    },
    {
      "inputs": [],
      "name": "getRequestOwnerCount",
      "outputs": [
        {
          "internalType": "uint256",
          "name": "",
          "type": "uint256"
        }
      ],
      "stateMutability": "view",
      "type": "function",
      "constant": true
    },
    {
      "inputs": [
        {
          "internalType": "uint256",
          "name": "_txId",
          "type": "uint256"
        }
      ],
      "name": "getTransaction",
      "outputs": [
        {
          "internalType": "address",
          "name": "destination",
          "type": "address"
        },
        {
          "internalType": "uint256",
          "name": "value",
          "type": "uint256"
        },
        {
          "internalType": "bytes",
          "name": "data",
          "type": "bytes"
        },
        {
          "internalType": "bool",
          "name": "executed",
          "type": "bool"
        },
        {
          "internalType": "uint256",
          "name": "numConfirmations",
          "type": "uint256"
        },
        {
          "internalType": "address",
          "name": "token",
          "type": "address"
        }
      ],
      "stateMutability": "view",
      "type": "function",
      "constant": true
    },
    {
      "inputs": [
        {
          "internalType": "uint256",
          "name": "_reqId",
          "type": "uint256"
        }
      ],
      "name": "getRequestOwner",
      "outputs": [
        {
          "internalType": "address",
          "name": "owner",
          "type": "address"
        },
        {
          "internalType": "uint256",
          "name": "numConfirmations",
          "type": "uint256"
        },
        {
          "internalType": "bytes",
          "name": "data",
          "type": "bytes"
        },
        {
          "internalType": "bool",
          "name": "executed",
          "type": "bool"
        },
        {
          "internalType": "bool",
          "name": "addOwner",
          "type": "bool"
        }
      ],
      "stateMutability": "view",
      "type": "function",
      "constant": true
    },
    {
      "inputs": [
        {
          "internalType": "address",
          "name": "_address",
          "type": "address"
        }
      ],
      "name": "addTokenManage",
      "outputs": [],
      "stateMutability": "nonpayable",
      "type": "function"
    },
    {
      "inputs": [
        {
          "internalType": "string",
          "name": "_name",
          "type": "string"
        },
        {
          "internalType": "string",
          "name": "_symbol",
          "type": "string"
        },
        {
          "internalType": "uint8",
          "name": "_decimals",
          "type": "uint8"
        },
        {
          "internalType": "uint256",
          "name": "_total",
          "type": "uint256"
        }
      ],
      "name": "createToken",
      "outputs": [
        {
          "internalType": "contract W2TCoinERC20",
          "name": "",
          "type": "address"
        }
      ],
      "stateMutability": "nonpayable",
      "type": "function"
    },
    {
      "inputs": [
        {
          "internalType": "address",
          "name": "_addressToken",
          "type": "address"
        },
        {
          "internalType": "address",
          "name": "_addrWallet",
          "type": "address"
        }
      ],
      "name": "getBalanceOfToken",
      "outputs": [
        {
          "internalType": "uint256",
          "name": "",
          "type": "uint256"
        }
      ],
      "stateMutability": "view",
      "type": "function",
      "constant": true
    }
  ],
  "bytecode": "0x608060405260405162005f1538038062005f158339818101604052810190620000299190620006b9565b600081511162000070576040517f08c379a00000000000000000000000000000000000000000000000000000000081526004016200006790620007b4565b60405180910390fd5b60008211801562000082575080518211155b620000c4576040517f08c379a0000000000000000000000000000000000000000000000000000000008152600401620000bb906200084c565b60405180910390fd5b60005b8151811015620002c7576000828281518110620000e957620000e86200086e565b5b60200260200101519050600073ffffffffffffffffffffffffffffffffffffffff168173ffffffffffffffffffffffffffffffffffffffff160362000165576040517f08c379a00000000000000000000000000000000000000000000000000000000081526004016200015c90620008ed565b60405180910390fd5b600560008273ffffffffffffffffffffffffffffffffffffffff1673ffffffffffffffffffffffffffffffffffffffff16815260200190815260200160002060009054906101000a900460ff1615620001f5576040517f08c379a0000000000000000000000000000000000000000000000000000000008152600401620001ec906200095f565b60405180910390fd5b6001600560008373ffffffffffffffffffffffffffffffffffffffff1673ffffffffffffffffffffffffffffffffffffffff16815260200190815260200160002060006101000a81548160ff0219169083151502179055506002819080600181540180825580915050600190039060005260206000200160009091909190916101000a81548173ffffffffffffffffffffffffffffffffffffffff021916908373ffffffffffffffffffffffffffffffffffffffff160217905550508080620002be90620009b0565b915050620000c7565b508260009080519060200190620002e0929190620002f1565b508160018190555050505062000a61565b828054620002ff9062000a2c565b90600052602060002090601f0160209004810192826200032357600085556200036f565b82601f106200033e57805160ff19168380011785556200036f565b828001600101855582156200036f579182015b828111156200036e57825182559160200191906001019062000351565b5b5090506200037e919062000382565b5090565b5b808211156200039d57600081600090555060010162000383565b5090565b6000604051905090565b600080fd5b600080fd5b600080fd5b600080fd5b6000601f19601f8301169050919050565b7f4e487b7100000000000000000000000000000000000000000000000000000000600052604160045260246000fd5b6200040a82620003bf565b810181811067ffffffffffffffff821117156200042c576200042b620003d0565b5b80604052505050565b600062000441620003a1565b90506200044f8282620003ff565b919050565b600067ffffffffffffffff821115620004725762000471620003d0565b5b6200047d82620003bf565b9050602081019050919050565b60005b83811015620004aa5780820151818401526020810190506200048d565b83811115620004ba576000848401525b50505050565b6000620004d7620004d18462000454565b62000435565b905082815260208101848484011115620004f657620004f5620003ba565b5b620005038482856200048a565b509392505050565b600082601f830112620005235762000522620003b5565b5b815162000535848260208601620004c0565b91505092915050565b6000819050919050565b62000553816200053e565b81146200055f57600080fd5b50565b600081519050620005738162000548565b92915050565b600067ffffffffffffffff821115620005975762000596620003d0565b5b602082029050602081019050919050565b600080fd5b600073ffffffffffffffffffffffffffffffffffffffff82169050919050565b6000620005da82620005ad565b9050919050565b620005ec81620005cd565b8114620005f857600080fd5b50565b6000815190506200060c81620005e1565b92915050565b600062000629620006238462000579565b62000435565b905080838252602082019050602084028301858111156200064f576200064e620005a8565b5b835b818110156200067c5780620006678882620005fb565b84526020840193505060208101905062000651565b5050509392505050565b600082601f8301126200069e576200069d620003b5565b5b8151620006b084826020860162000612565b91505092915050565b600080600060608486031215620006d557620006d4620003ab565b5b600084015167ffffffffffffffff811115620006f657620006f5620003b0565b5b62000704868287016200050b565b9350506020620007178682870162000562565b925050604084015167ffffffffffffffff8111156200073b576200073a620003b0565b5b620007498682870162000686565b9150509250925092565b600082825260208201905092915050565b7f4f776e6572732072657175697265640000000000000000000000000000000000600082015250565b60006200079c600f8362000753565b9150620007a98262000764565b602082019050919050565b60006020820190508181036000830152620007cf816200078d565b9050919050565b7f496e76616c6964206e756d626572206f6620726571756972656420636f6e666960008201527f726d6174696f6e73000000000000000000000000000000000000000000000000602082015250565b60006200083460288362000753565b91506200084182620007d6565b604082019050919050565b60006020820190508181036000830152620008678162000825565b9050919050565b7f4e487b7100000000000000000000000000000000000000000000000000000000600052603260045260246000fd5b7f696e76616c6964206f776e657200000000000000000000000000000000000000600082015250565b6000620008d5600d8362000753565b9150620008e2826200089d565b602082019050919050565b600060208201905081810360008301526200090881620008c6565b9050919050565b7f6f776e6572206e6f7420756e6971756500000000000000000000000000000000600082015250565b60006200094760108362000753565b915062000954826200090f565b602082019050919050565b600060208201905081810360008301526200097a8162000938565b9050919050565b7f4e487b7100000000000000000000000000000000000000000000000000000000600052601160045260246000fd5b6000620009bd826200053e565b91507fffffffffffffffffffffffffffffffffffffffffffffffffffffffffffffffff8203620009f257620009f162000981565b5b600182019050919050565b7f4e487b7100000000000000000000000000000000000000000000000000000000600052602260045260246000fd5b6000600282049050600182168062000a4557607f821691505b60208210810362000a5b5762000a5a620009fd565b5b50919050565b6154a48062000a716000396000f3fe6080604052600436106200016f5760003560e01c806383920e9011620000c7578063b3128fc51162000079578063b3128fc514620005da578063bb9fe6121462000608578063c01a8c841462000636578063d0549b851462000664578063ee22610b1462000694578063f2f3e22914620006c257620001c9565b806383920e9014620004755780638611cb6714620004a557806390ae839014620004ed5780639ace38c21462000531578063a0e67e2b146200057a578063aa6ca80814620005aa57620001c9565b806333ea3dc8116200012157806333ea3dc814620002fe5780635754429114620003475780636513aba3146200037557806372e815d414620003b957806380f59a6514620003e957806381d12c58146200042d57620001c9565b806306fdde0314620001ce578063104e8f2614620001fe57806312065fe0146200022c57806320ea8d86146200025c578063210f5dda146200028a5780632e7700f014620002ce57620001c9565b36620001c9573373ffffffffffffffffffffffffffffffffffffffff167f90890809c654f11d6e72a28fa60149770a0d11ec6c92319d6ceb2bb0a4ea1a153447604051620001bf92919062002c7e565b60405180910390a2005b600080fd5b348015620001db57600080fd5b50620001e6620006f0565b604051620001f5919062002d4f565b60405180910390f35b3480156200020b57600080fd5b506200022a600480360381019062000224919062002db8565b62000786565b005b3480156200023957600080fd5b506200024462000bc0565b60405162000253919062002dea565b60405180910390f35b3480156200026957600080fd5b5062000288600480360381019062000282919062002db8565b62000bc8565b005b3480156200029757600080fd5b50620002b66004803603810190620002b0919062002f96565b62000eb6565b604051620002c59190620030d1565b60405180910390f35b348015620002db57600080fd5b50620002e662000ff9565b604051620002f5919062002dea565b60405180910390f35b3480156200030b57600080fd5b506200032a600480360381019062000324919062002db8565b62001006565b6040516200033e969594939291906200318d565b60405180910390f35b3480156200035457600080fd5b506200037360048036038101906200036d9190620032e6565b62001199565b005b3480156200038257600080fd5b50620003a160048036038101906200039b919062003377565b62001477565b604051620003b0919062002dea565b60405180910390f35b348015620003c657600080fd5b50620003d162001500565b604051620003e0919062002dea565b60405180910390f35b348015620003f657600080fd5b506200041560048036038101906200040f9190620033be565b6200150d565b60405162000424919062003405565b60405180910390f35b3480156200043a57600080fd5b5062000459600480360381019062000453919062002db8565b6200153c565b6040516200046c95949392919062003422565b60405180910390f35b3480156200048257600080fd5b506200048d6200164d565b6040516200049c919062003670565b60405180910390f35b348015620004b257600080fd5b50620004d16004803603810190620004cb919062002db8565b62001823565b604051620004e495949392919062003422565b60405180910390f35b348015620004fa57600080fd5b50620005196004803603810190620005139190620033be565b6200199a565b60405162000528919062003405565b60405180910390f35b3480156200053e57600080fd5b506200055d600480360381019062000557919062002db8565b620019c9565b604051620005719695949392919062003694565b60405180910390f35b3480156200058757600080fd5b506200059262001af3565b604051620005a19190620037c5565b60405180910390f35b348015620005b757600080fd5b50620005c262001b83565b604051620005d19190620037c5565b60405180910390f35b348015620005e757600080fd5b50620006066004803603810190620006009190620037e9565b62001c13565b005b3480156200061557600080fd5b506200063460048036038101906200062e91906200384c565b62001df0565b005b3480156200064357600080fd5b506200066260048036038101906200065c919062002db8565b6200217c565b005b3480156200067157600080fd5b506200067c6200246d565b6040516200068b919062002dea565b60405180910390f35b348015620006a157600080fd5b50620006c06004803603810190620006ba919062002db8565b62002473565b005b348015620006cf57600080fd5b50620006ee6004803603810190620006e8919062002db8565b620028b4565b005b60008054620006ff90620038f6565b80601f01602080910402602001604051908101604052809291908181526020018280546200072d90620038f6565b80156200077e5780601f1062000752576101008083540402835291602001916200077e565b820191906000526020600020905b8154815290600101906020018083116200076057829003601f168201915b505050505081565b600560003373ffffffffffffffffffffffffffffffffffffffff1673ffffffffffffffffffffffffffffffffffffffff16815260200190815260200160002060009054906101000a900460ff1662000815576040517f08c379a00000000000000000000000000000000000000000000000000000000081526004016200080c906200397b565b60405180910390fd5b80600980549050811062000860576040517f08c379a00000000000000000000000000000000000000000000000000000000081526004016200085790620039ed565b60405180910390fd5b816009818154811062000878576200087762003a0f565b5b906000526020600020906004020160030160009054906101000a900460ff1615620008da576040517f08c379a0000000000000000000000000000000000000000000000000000000008152600401620008d19062003a8e565b60405180910390fd5b600060098481548110620008f357620008f262003a0f565b5b906000526020600020906004020190506002805490508160010154101562000952576040517f08c379a0000000000000000000000000000000000000000000000000000000008152600401620009499062003b26565b60405180910390fd5b8060030160019054906101000a900460ff161562000ab65760028160000160009054906101000a900473ffffffffffffffffffffffffffffffffffffffff169080600181540180825580915050600190039060005260206000200160009091909190916101000a81548173ffffffffffffffffffffffffffffffffffffffff021916908373ffffffffffffffffffffffffffffffffffffffff1602179055506001600560008360000160009054906101000a900473ffffffffffffffffffffffffffffffffffffffff1673ffffffffffffffffffffffffffffffffffffffff1673ffffffffffffffffffffffffffffffffffffffff16815260200190815260200160002060006101000a81548160ff0219169083151502179055503373ffffffffffffffffffffffffffffffffffffffff167fac1e9ef41b54c676ccf449d83ae6f2624bcdce8f5b93a6b48ce95874c332693d60405160405180910390a262000b76565b6000600560008360000160009054906101000a900473ffffffffffffffffffffffffffffffffffffffff1673ffffffffffffffffffffffffffffffffffffffff1673ffffffffffffffffffffffffffffffffffffffff16815260200190815260200160002060006101000a81548160ff0219169083151502179055503373ffffffffffffffffffffffffffffffffffffffff167fadfb8ca2578f0288f371f60ed3bf03edbbc7867f43e893c2da79cc5b21e9300160405160405180910390a25b833373ffffffffffffffffffffffffffffffffffffffff167f58fba5b1c4ad2459353fb89cf593648042dad3d44e60c9e94a137e746fffa1ae60405160405180910390a350505050565b600047905090565b600560003373ffffffffffffffffffffffffffffffffffffffff1673ffffffffffffffffffffffffffffffffffffffff16815260200190815260200160002060009054906101000a900460ff1662000c57576040517f08c379a000000000000000000000000000000000000000000000000000000000815260040162000c4e906200397b565b60405180910390fd5b80600880549050811062000ca2576040517f08c379a000000000000000000000000000000000000000000000000000000000815260040162000c999062003b98565b60405180910390fd5b816008818154811062000cba5762000cb962003a0f565b5b906000526020600020906005020160040160009054906101000a900460ff161562000d1c576040517f08c379a000000000000000000000000000000000000000000000000000000000815260040162000d139062003c0a565b60405180910390fd5b60006008848154811062000d355762000d3462003a0f565b5b906000526020600020906005020190506006600085815260200190815260200160002060003373ffffffffffffffffffffffffffffffffffffffff1673ffffffffffffffffffffffffffffffffffffffff16815260200190815260200160002060009054906101000a900460ff1662000de5576040517f08c379a000000000000000000000000000000000000000000000000000000000815260040162000ddc9062003c7c565b60405180910390fd5b600181600301600082825462000dfc919062003ccd565b9250508190555060006006600086815260200190815260200160002060003373ffffffffffffffffffffffffffffffffffffffff1673ffffffffffffffffffffffffffffffffffffffff16815260200190815260200160002060006101000a81548160ff021916908315150217905550833373ffffffffffffffffffffffffffffffffffffffff167ff0dca620e2e81f7841d07bcc105e1704fb01475b278a9d4c236e1c62945edd5560405160405180910390a350505050565b6000600560003373ffffffffffffffffffffffffffffffffffffffff1673ffffffffffffffffffffffffffffffffffffffff16815260200190815260200160002060009054906101000a900460ff1662000f47576040517f08c379a000000000000000000000000000000000000000000000000000000000815260040162000f3e906200397b565b60405180910390fd5b60008585858560405162000f5b9062002ba5565b62000f6a949392919062003d19565b604051809103906000f08015801562000f87573d6000803e3d6000fd5b5090506003819080600181540180825580915050600190039060005260206000200160009091909190916101000a81548173ffffffffffffffffffffffffffffffffffffffff021916908373ffffffffffffffffffffffffffffffffffffffff16021790555080915050949350505050565b6000600880549050905090565b600080606060008060008660088054905081106200105b576040517f08c379a0000000000000000000000000000000000000000000000000000000008152600401620010529062003b98565b60405180910390fd5b60006008898154811062001074576200107362003a0f565b5b906000526020600020906005020190508060000160009054906101000a900473ffffffffffffffffffffffffffffffffffffffff168160010154826002018360040160009054906101000a900460ff1684600301548560040160019054906101000a900473ffffffffffffffffffffffffffffffffffffffff16838054620010fc90620038f6565b80601f01602080910402602001604051908101604052809291908181526020018280546200112a90620038f6565b80156200117b5780601f106200114f576101008083540402835291602001916200117b565b820191906000526020600020905b8154815290600101906020018083116200115d57829003601f168201915b50505050509350975097509750975097509750505091939550919395565b600560003373ffffffffffffffffffffffffffffffffffffffff1673ffffffffffffffffffffffffffffffffffffffff16815260200190815260200160002060009054906101000a900460ff1662001228576040517f08c379a00000000000000000000000000000000000000000000000000000000081526004016200121f906200397b565b60405180910390fd5b6000600880549050905060086040518060c001604052808773ffffffffffffffffffffffffffffffffffffffff168152602001868152602001858152602001600181526020016000151581526020018473ffffffffffffffffffffffffffffffffffffffff16815250908060018154018082558091505060019003906000526020600020906005020160009091909190915060008201518160000160006101000a81548173ffffffffffffffffffffffffffffffffffffffff021916908373ffffffffffffffffffffffffffffffffffffffff1602179055506020820151816001015560408201518160020190805190602001906200132992919062002bb3565b506060820151816003015560808201518160040160006101000a81548160ff02191690831515021790555060a08201518160040160016101000a81548173ffffffffffffffffffffffffffffffffffffffff021916908373ffffffffffffffffffffffffffffffffffffffff160217905550505060016006600083815260200190815260200160002060003373ffffffffffffffffffffffffffffffffffffffff1673ffffffffffffffffffffffffffffffffffffffff16815260200190815260200160002060006101000a81548160ff0219169083151502179055508473ffffffffffffffffffffffffffffffffffffffff16813373ffffffffffffffffffffffffffffffffffffffff167fd5a05bf70715ad82a09a756320284a1b54c9ff74cd0f8cce6219e79b563fe59d87876040516200146892919062003d74565b60405180910390a45050505050565b60008273ffffffffffffffffffffffffffffffffffffffff166370a08231836040518263ffffffff1660e01b8152600401620014b4919062003da8565b602060405180830381865afa158015620014d2573d6000803e3d6000fd5b505050506040513d601f19601f82011682018060405250810190620014f8919062003ddc565b905092915050565b6000600980549050905090565b60066020528160005260406000206020528060005260406000206000915091509054906101000a900460ff1681565b600981815481106200154d57600080fd5b90600052602060002090600402016000915090508060000160009054906101000a900473ffffffffffffffffffffffffffffffffffffffff16908060010154908060020180546200159e90620038f6565b80601f0160208091040260200160405190810160405280929190818152602001828054620015cc90620038f6565b80156200161d5780601f10620015f1576101008083540402835291602001916200161d565b820191906000526020600020905b815481529060010190602001808311620015ff57829003601f168201915b5050505050908060030160009054906101000a900460ff16908060030160019054906101000a900460ff16905085565b60606008805480602002602001604051908101604052809291908181526020016000905b828210156200181a57838290600052602060002090600502016040518060c00160405290816000820160009054906101000a900473ffffffffffffffffffffffffffffffffffffffff1673ffffffffffffffffffffffffffffffffffffffff1673ffffffffffffffffffffffffffffffffffffffff168152602001600182015481526020016002820180546200170790620038f6565b80601f01602080910402602001604051908101604052809291908181526020018280546200173590620038f6565b8015620017865780601f106200175a5761010080835404028352916020019162001786565b820191906000526020600020905b8154815290600101906020018083116200176857829003601f168201915b50505050508152602001600382015481526020016004820160009054906101000a900460ff161515151581526020016004820160019054906101000a900473ffffffffffffffffffffffffffffffffffffffff1673ffffffffffffffffffffffffffffffffffffffff1673ffffffffffffffffffffffffffffffffffffffff16815250508152602001906001019062001671565b50505050905090565b600080606060008085600980549050811062001876576040517f08c379a00000000000000000000000000000000000000000000000000000000081526004016200186d90620039ed565b60405180910390fd5b6000600988815481106200188f576200188e62003a0f565b5b906000526020600020906004020190508060000160009054906101000a900473ffffffffffffffffffffffffffffffffffffffff168160010154826002018360030160009054906101000a900460ff168460030160019054906101000a900460ff16828054620018ff90620038f6565b80601f01602080910402602001604051908101604052809291908181526020018280546200192d90620038f6565b80156200197e5780601f1062001952576101008083540402835291602001916200197e565b820191906000526020600020905b8154815290600101906020018083116200196057829003601f168201915b5050505050925096509650965096509650505091939590929450565b60076020528160005260406000206020528060005260406000206000915091509054906101000a900460ff1681565b60088181548110620019da57600080fd5b90600052602060002090600502016000915090508060000160009054906101000a900473ffffffffffffffffffffffffffffffffffffffff169080600101549080600201805462001a2b90620038f6565b80601f016020809104026020016040519081016040528092919081815260200182805462001a5990620038f6565b801562001aaa5780601f1062001a7e5761010080835404028352916020019162001aaa565b820191906000526020600020905b81548152906001019060200180831162001a8c57829003601f168201915b5050505050908060030154908060040160009054906101000a900460ff16908060040160019054906101000a900473ffffffffffffffffffffffffffffffffffffffff16905086565b6060600280548060200260200160405190810160405280929190818152602001828054801562001b7957602002820191906000526020600020905b8160009054906101000a900473ffffffffffffffffffffffffffffffffffffffff1673ffffffffffffffffffffffffffffffffffffffff168152602001906001019080831162001b2e575b5050505050905090565b6060600380548060200260200160405190810160405280929190818152602001828054801562001c0957602002820191906000526020600020905b8160009054906101000a900473ffffffffffffffffffffffffffffffffffffffff1673ffffffffffffffffffffffffffffffffffffffff168152602001906001019080831162001bbe575b5050505050905090565b600560003373ffffffffffffffffffffffffffffffffffffffff1673ffffffffffffffffffffffffffffffffffffffff16815260200190815260200160002060009054906101000a900460ff1662001ca2576040517f08c379a000000000000000000000000000000000000000000000000000000000815260040162001c99906200397b565b60405180910390fd5b600460008273ffffffffffffffffffffffffffffffffffffffff1673ffffffffffffffffffffffffffffffffffffffff16815260200190815260200160002060009054906101000a900460ff161562001d32576040517f08c379a000000000000000000000000000000000000000000000000000000000815260040162001d299062003e5e565b60405180910390fd5b6001600460008373ffffffffffffffffffffffffffffffffffffffff1673ffffffffffffffffffffffffffffffffffffffff16815260200190815260200160002060006101000a81548160ff0219169083151502179055506003819080600181540180825580915050600190039060005260206000200160009091909190916101000a81548173ffffffffffffffffffffffffffffffffffffffff021916908373ffffffffffffffffffffffffffffffffffffffff16021790555050565b600560003373ffffffffffffffffffffffffffffffffffffffff1673ffffffffffffffffffffffffffffffffffffffff16815260200190815260200160002060009054906101000a900460ff1662001e7f576040517f08c379a000000000000000000000000000000000000000000000000000000000815260040162001e76906200397b565b60405180910390fd5b600560008473ffffffffffffffffffffffffffffffffffffffff1673ffffffffffffffffffffffffffffffffffffffff16815260200190815260200160002060009054906101000a900460ff1615801562001ed75750805b8062001f375750600560008473ffffffffffffffffffffffffffffffffffffffff1673ffffffffffffffffffffffffffffffffffffffff16815260200190815260200160002060009054906101000a900460ff16801562001f36575080155b5b62001f79576040517f08c379a000000000000000000000000000000000000000000000000000000000815260040162001f709062003ed0565b60405180910390fd5b6000600980549050905060096040518060a001604052808673ffffffffffffffffffffffffffffffffffffffff16815260200160018152602001858152602001600015158152602001841515815250908060018154018082558091505060019003906000526020600020906004020160009091909190915060008201518160000160006101000a81548173ffffffffffffffffffffffffffffffffffffffff021916908373ffffffffffffffffffffffffffffffffffffffff1602179055506020820151816001015560408201518160020190805190602001906200206092919062002bb3565b5060608201518160030160006101000a81548160ff02191690831515021790555060808201518160030160016101000a81548160ff021916908315150217905550505060016007600083815260200190815260200160002060003373ffffffffffffffffffffffffffffffffffffffff1673ffffffffffffffffffffffffffffffffffffffff16815260200190815260200160002060006101000a81548160ff0219169083151502179055508373ffffffffffffffffffffffffffffffffffffffff16813373ffffffffffffffffffffffffffffffffffffffff167f7b5b88143e46f2c2e7fae89b077bae6530309244071ae7e635c42ac7e187094786866040516200216e92919062003ef2565b60405180910390a450505050565b600560003373ffffffffffffffffffffffffffffffffffffffff1673ffffffffffffffffffffffffffffffffffffffff16815260200190815260200160002060009054906101000a900460ff166200220b576040517f08c379a000000000000000000000000000000000000000000000000000000000815260040162002202906200397b565b60405180910390fd5b80600880549050811062002256576040517f08c379a00000000000000000000000000000000000000000000000000000000081526004016200224d9062003b98565b60405180910390fd5b81600881815481106200226e576200226d62003a0f565b5b906000526020600020906005020160040160009054906101000a900460ff1615620022d0576040517f08c379a0000000000000000000000000000000000000000000000000000000008152600401620022c79062003c0a565b60405180910390fd5b826006600082815260200190815260200160002060003373ffffffffffffffffffffffffffffffffffffffff1673ffffffffffffffffffffffffffffffffffffffff16815260200190815260200160002060009054906101000a900460ff161562002372576040517f08c379a0000000000000000000000000000000000000000000000000000000008152600401620023699062003f76565b60405180910390fd5b6000600885815481106200238b576200238a62003a0f565b5b906000526020600020906005020190506001816003016000828254620023b2919062003f98565b9250508190555060016006600087815260200190815260200160002060003373ffffffffffffffffffffffffffffffffffffffff1673ffffffffffffffffffffffffffffffffffffffff16815260200190815260200160002060006101000a81548160ff021916908315150217905550843373ffffffffffffffffffffffffffffffffffffffff167f5cbe105e36805f7820e291f799d5794ff948af2a5f664e580382defb6339004160405160405180910390a35050505050565b60015481565b600560003373ffffffffffffffffffffffffffffffffffffffff1673ffffffffffffffffffffffffffffffffffffffff16815260200190815260200160002060009054906101000a900460ff1662002502576040517f08c379a0000000000000000000000000000000000000000000000000000000008152600401620024f9906200397b565b60405180910390fd5b8060088054905081106200254d576040517f08c379a0000000000000000000000000000000000000000000000000000000008152600401620025449062003b98565b60405180910390fd5b816008818154811062002565576200256462003a0f565b5b906000526020600020906005020160040160009054906101000a900460ff1615620025c7576040517f08c379a0000000000000000000000000000000000000000000000000000000008152600401620025be9062003c0a565b60405180910390fd5b600060088481548110620025e057620025df62003a0f565b5b90600052602060002090600502019050600154816003015410156200263c576040517f08c379a0000000000000000000000000000000000000000000000000000000008152600401620026339062004045565b60405180910390fd5b60018160040160006101000a81548160ff021916908315150217905550600073ffffffffffffffffffffffffffffffffffffffff168160040160019054906101000a900473ffffffffffffffffffffffffffffffffffffffff1673ffffffffffffffffffffffffffffffffffffffff161462002788578060040160019054906101000a900473ffffffffffffffffffffffffffffffffffffffff1673ffffffffffffffffffffffffffffffffffffffff1663a9059cbb8260000160009054906101000a900473ffffffffffffffffffffffffffffffffffffffff1683600101546040518363ffffffff1660e01b81526004016200273b92919062004067565b6020604051808303816000875af11580156200275b573d6000803e3d6000fd5b505050506040513d601f19601f82011682018060405250810190620027819190620040ab565b506200286a565b60008160000160009054906101000a900473ffffffffffffffffffffffffffffffffffffffff1673ffffffffffffffffffffffffffffffffffffffff16826001015483600201604051620027dd919062004188565b60006040518083038185875af1925050503d80600081146200281c576040519150601f19603f3d011682016040523d82523d6000602084013e62002821565b606091505b505090508062002868576040517f08c379a00000000000000000000000000000000000000000000000000000000081526004016200285f90620041f1565b60405180910390fd5b505b833373ffffffffffffffffffffffffffffffffffffffff167f5445f318f4f5fcfb66592e68e0cc5822aa15664039bd5f0ffde24c5a8142b1ac60405160405180910390a350505050565b600560003373ffffffffffffffffffffffffffffffffffffffff1673ffffffffffffffffffffffffffffffffffffffff16815260200190815260200160002060009054906101000a900460ff1662002943576040517f08c379a00000000000000000000000000000000000000000000000000000000081526004016200293a906200397b565b60405180910390fd5b8060098054905081106200298e576040517f08c379a00000000000000000000000000000000000000000000000000000000081526004016200298590620039ed565b60405180910390fd5b816007600082815260200190815260200160002060003373ffffffffffffffffffffffffffffffffffffffff1673ffffffffffffffffffffffffffffffffffffffff16815260200190815260200160002060009054906101000a900460ff161562002a30576040517f08c379a000000000000000000000000000000000000000000000000000000000815260040162002a279062004263565b60405180910390fd5b826009818154811062002a485762002a4762003a0f565b5b906000526020600020906004020160030160009054906101000a900460ff161562002aaa576040517f08c379a000000000000000000000000000000000000000000000000000000000815260040162002aa19062003a8e565b60405180910390fd5b60006009858154811062002ac35762002ac262003a0f565b5b90600052602060002090600402019050600181600101600082825462002aea919062003f98565b9250508190555060016007600087815260200190815260200160002060003373ffffffffffffffffffffffffffffffffffffffff1673ffffffffffffffffffffffffffffffffffffffff16815260200190815260200160002060006101000a81548160ff021916908315150217905550843373ffffffffffffffffffffffffffffffffffffffff167fa57caa563e1329cfa016e4f14420170c703d0ad464720628347f33fca81fad9860405160405180910390a35050505050565b6111e9806200428683390190565b82805462002bc190620038f6565b90600052602060002090601f01602090048101928262002be5576000855562002c31565b82601f1062002c0057805160ff191683800117855562002c31565b8280016001018555821562002c31579182015b8281111562002c3057825182559160200191906001019062002c13565b5b50905062002c40919062002c44565b5090565b5b8082111562002c5f57600081600090555060010162002c45565b5090565b6000819050919050565b62002c788162002c63565b82525050565b600060408201905062002c95600083018562002c6d565b62002ca4602083018462002c6d565b9392505050565b600081519050919050565b600082825260208201905092915050565b60005b8381101562002ce757808201518184015260208101905062002cca565b8381111562002cf7576000848401525b50505050565b6000601f19601f8301169050919050565b600062002d1b8262002cab565b62002d27818562002cb6565b935062002d3981856020860162002cc7565b62002d448162002cfd565b840191505092915050565b6000602082019050818103600083015262002d6b818462002d0e565b905092915050565b6000604051905090565b600080fd5b600080fd5b62002d928162002c63565b811462002d9e57600080fd5b50565b60008135905062002db28162002d87565b92915050565b60006020828403121562002dd15762002dd062002d7d565b5b600062002de18482850162002da1565b91505092915050565b600060208201905062002e01600083018462002c6d565b92915050565b600080fd5b600080fd5b7f4e487b7100000000000000000000000000000000000000000000000000000000600052604160045260246000fd5b62002e4b8262002cfd565b810181811067ffffffffffffffff8211171562002e6d5762002e6c62002e11565b5b80604052505050565b600062002e8262002d73565b905062002e90828262002e40565b919050565b600067ffffffffffffffff82111562002eb35762002eb262002e11565b5b62002ebe8262002cfd565b9050602081019050919050565b82818337600083830152505050565b600062002ef162002eeb8462002e95565b62002e76565b90508281526020810184848401111562002f105762002f0f62002e0c565b5b62002f1d84828562002ecb565b509392505050565b600082601f83011262002f3d5762002f3c62002e07565b5b813562002f4f84826020860162002eda565b91505092915050565b600060ff82169050919050565b62002f708162002f58565b811462002f7c57600080fd5b50565b60008135905062002f908162002f65565b92915050565b6000806000806080858703121562002fb35762002fb262002d7d565b5b600085013567ffffffffffffffff81111562002fd45762002fd362002d82565b5b62002fe28782880162002f25565b945050602085013567ffffffffffffffff81111562003006576200300562002d82565b5b620030148782880162002f25565b9350506040620030278782880162002f7f565b92505060606200303a8782880162002da1565b91505092959194509250565b600073ffffffffffffffffffffffffffffffffffffffff82169050919050565b6000819050919050565b6000620030916200308b620030858462003046565b62003066565b62003046565b9050919050565b6000620030a58262003070565b9050919050565b6000620030b98262003098565b9050919050565b620030cb81620030ac565b82525050565b6000602082019050620030e86000830184620030c0565b92915050565b6000620030fb8262003046565b9050919050565b6200310d81620030ee565b82525050565b600081519050919050565b600082825260208201905092915050565b60006200313c8262003113565b6200314881856200311e565b93506200315a81856020860162002cc7565b620031658162002cfd565b840191505092915050565b60008115159050919050565b620031878162003170565b82525050565b600060c082019050620031a4600083018962003102565b620031b3602083018862002c6d565b8181036040830152620031c781876200312f565b9050620031d860608301866200317c565b620031e7608083018562002c6d565b620031f660a083018462003102565b979650505050505050565b6200320c81620030ee565b81146200321857600080fd5b50565b6000813590506200322c8162003201565b92915050565b600067ffffffffffffffff82111562003250576200324f62002e11565b5b6200325b8262002cfd565b9050602081019050919050565b60006200327f620032798462003232565b62002e76565b9050828152602081018484840111156200329e576200329d62002e0c565b5b620032ab84828562002ecb565b509392505050565b600082601f830112620032cb57620032ca62002e07565b5b8135620032dd84826020860162003268565b91505092915050565b6000806000806080858703121562003303576200330262002d7d565b5b600062003313878288016200321b565b9450506020620033268782880162002da1565b935050604085013567ffffffffffffffff8111156200334a576200334962002d82565b5b6200335887828801620032b3565b92505060606200336b878288016200321b565b91505092959194509250565b6000806040838503121562003391576200339062002d7d565b5b6000620033a1858286016200321b565b9250506020620033b4858286016200321b565b9150509250929050565b60008060408385031215620033d857620033d762002d7d565b5b6000620033e88582860162002da1565b9250506020620033fb858286016200321b565b9150509250929050565b60006020820190506200341c60008301846200317c565b92915050565b600060a08201905062003439600083018862003102565b62003448602083018762002c6d565b81810360408301526200345c81866200312f565b90506200346d60608301856200317c565b6200347c60808301846200317c565b9695505050505050565b600081519050919050565b600082825260208201905092915050565b6000819050602082019050919050565b620034bd81620030ee565b82525050565b620034ce8162002c63565b82525050565b600082825260208201905092915050565b6000620034f28262003113565b620034fe8185620034d4565b93506200351081856020860162002cc7565b6200351b8162002cfd565b840191505092915050565b620035318162003170565b82525050565b600060c083016000830151620035516000860182620034b2565b506020830151620035666020860182620034c3565b5060408301518482036040860152620035808282620034e5565b9150506060830151620035976060860182620034c3565b506080830151620035ac608086018262003526565b5060a0830151620035c160a0860182620034b2565b508091505092915050565b6000620035da838362003537565b905092915050565b6000602082019050919050565b6000620035fc8262003486565b62003608818562003491565b9350836020820285016200361c85620034a2565b8060005b858110156200365e57848403895281516200363c8582620035cc565b94506200364983620035e2565b925060208a0199505060018101905062003620565b50829750879550505050505092915050565b600060208201905081810360008301526200368c8184620035ef565b905092915050565b600060c082019050620036ab600083018962003102565b620036ba602083018862002c6d565b8181036040830152620036ce81876200312f565b9050620036df606083018662002c6d565b620036ee60808301856200317c565b620036fd60a083018462003102565b979650505050505050565b600081519050919050565b600082825260208201905092915050565b6000819050602082019050919050565b6000620037428383620034b2565b60208301905092915050565b6000602082019050919050565b6000620037688262003708565b62003774818562003713565b9350620037818362003724565b8060005b83811015620037b85781516200379c888262003734565b9750620037a9836200374e565b92505060018101905062003785565b5085935050505092915050565b60006020820190508181036000830152620037e181846200375b565b905092915050565b60006020828403121562003802576200380162002d7d565b5b600062003812848285016200321b565b91505092915050565b620038268162003170565b81146200383257600080fd5b50565b60008135905062003846816200381b565b92915050565b60008060006060848603121562003868576200386762002d7d565b5b600062003878868287016200321b565b935050602084013567ffffffffffffffff8111156200389c576200389b62002d82565b5b620038aa86828701620032b3565b9250506040620038bd8682870162003835565b9150509250925092565b7f4e487b7100000000000000000000000000000000000000000000000000000000600052602260045260246000fd5b600060028204905060018216806200390f57607f821691505b602082108103620039255762003924620038c7565b5b50919050565b7f4e6f74206f776e65720000000000000000000000000000000000000000000000600082015250565b60006200396360098362002cb6565b915062003970826200392b565b602082019050919050565b60006020820190508181036000830152620039968162003954565b9050919050565b7f72657175657374206f776e6572206e6f74206578697374730000000000000000600082015250565b6000620039d560188362002cb6565b9150620039e2826200399d565b602082019050919050565b6000602082019050818103600083015262003a0881620039c6565b9050919050565b7f4e487b7100000000000000000000000000000000000000000000000000000000600052603260045260246000fd5b7f72657120616c7265616479206578656375746564000000000000000000000000600082015250565b600062003a7660148362002cb6565b915062003a838262003a3e565b602082019050919050565b6000602082019050818103600083015262003aa98162003a67565b9050919050565b7f43616e6e6f742065786563757465206368616e6765204f776e6572206f66662060008201527f77616c6c65740000000000000000000000000000000000000000000000000000602082015250565b600062003b0e60268362002cb6565b915062003b1b8262003ab0565b604082019050919050565b6000602082019050818103600083015262003b418162003aff565b9050919050565b7f747820646f6573206e6f74206578697374000000000000000000000000000000600082015250565b600062003b8060118362002cb6565b915062003b8d8262003b48565b602082019050919050565b6000602082019050818103600083015262003bb38162003b71565b9050919050565b7f747820616c726561647920657865637574656400000000000000000000000000600082015250565b600062003bf260138362002cb6565b915062003bff8262003bba565b602082019050919050565b6000602082019050818103600083015262003c258162003be3565b9050919050565b7f7478206e6f7420636f6e6669726d656400000000000000000000000000000000600082015250565b600062003c6460108362002cb6565b915062003c718262003c2c565b602082019050919050565b6000602082019050818103600083015262003c978162003c55565b9050919050565b7f4e487b7100000000000000000000000000000000000000000000000000000000600052601160045260246000fd5b600062003cda8262002c63565b915062003ce78362002c63565b92508282101562003cfd5762003cfc62003c9e565b5b828203905092915050565b62003d138162002f58565b82525050565b6000608082019050818103600083015262003d35818762002d0e565b9050818103602083015262003d4b818662002d0e565b905062003d5c604083018562003d08565b62003d6b606083018462002c6d565b95945050505050565b600060408201905062003d8b600083018562002c6d565b818103602083015262003d9f81846200312f565b90509392505050565b600060208201905062003dbf600083018462003102565b92915050565b60008151905062003dd68162002d87565b92915050565b60006020828403121562003df55762003df462002d7d565b5b600062003e058482850162003dc5565b91505092915050565b7f546f6b656e206e6f7420756e6971756500000000000000000000000000000000600082015250565b600062003e4660108362002cb6565b915062003e538262003e0e565b602082019050919050565b6000602082019050818103600083015262003e798162003e37565b9050919050565b7f4f776e6572206e6f7420756e6971756500000000000000000000000000000000600082015250565b600062003eb860108362002cb6565b915062003ec58262003e80565b602082019050919050565b6000602082019050818103600083015262003eeb8162003ea9565b9050919050565b6000604082019050818103600083015262003f0e81856200312f565b905062003f1f60208301846200317c565b9392505050565b7f747820616c726561647920636f6e6669726d6564000000000000000000000000600082015250565b600062003f5e60148362002cb6565b915062003f6b8262003f26565b602082019050919050565b6000602082019050818103600083015262003f918162003f4f565b9050919050565b600062003fa58262002c63565b915062003fb28362002c63565b9250827fffffffffffffffffffffffffffffffffffffffffffffffffffffffffffffffff0382111562003fea5762003fe962003c9e565b5b828201905092915050565b7f63616e6e6f742065786563757465207478000000000000000000000000000000600082015250565b60006200402d60118362002cb6565b91506200403a8262003ff5565b602082019050919050565b6000602082019050818103600083015262004060816200401e565b9050919050565b60006040820190506200407e600083018562003102565b6200408d602083018462002c6d565b9392505050565b600081519050620040a5816200381b565b92915050565b600060208284031215620040c457620040c362002d7d565b5b6000620040d48482850162004094565b91505092915050565b600081905092915050565b60008190508160005260206000209050919050565b600081546200410c81620038f6565b620041188186620040dd565b9450600182166000811462004136576001811462004148576200417f565b60ff198316865281860193506200417f565b6200415385620040e8565b60005b83811015620041775781548189015260018201915060208101905062004156565b838801955050505b50505092915050565b6000620041968284620040fd565b915081905092915050565b7f7478206661696c65640000000000000000000000000000000000000000000000600082015250565b6000620041d960098362002cb6565b9150620041e682620041a1565b602082019050919050565b600060208201905081810360008301526200420c81620041ca565b9050919050565b7f72657120616c726561647920636f6e6669726d65640000000000000000000000600082015250565b60006200424b60158362002cb6565b9150620042588262004213565b602082019050919050565b600060208201905081810360008301526200427e816200423c565b905091905056fe60806040523480156200001157600080fd5b50604051620011e9380380620011e98339818101604052810190620000379190620003a1565b83600090805190602001906200004f929190620000db565b50826001908051906020019062000068929190620000db565b5081600260006101000a81548160ff021916908360ff16021790555080600581905550600554600360003373ffffffffffffffffffffffffffffffffffffffff1673ffffffffffffffffffffffffffffffffffffffff1681526020019081526020016000208190555050505050620004b5565b828054620000e99062000480565b90600052602060002090601f0160209004810192826200010d576000855562000159565b82601f106200012857805160ff191683800117855562000159565b8280016001018555821562000159579182015b82811115620001585782518255916020019190600101906200013b565b5b5090506200016891906200016c565b5090565b5b80821115620001875760008160009055506001016200016d565b5090565b6000604051905090565b600080fd5b600080fd5b600080fd5b600080fd5b6000601f19601f8301169050919050565b7f4e487b7100000000000000000000000000000000000000000000000000000000600052604160045260246000fd5b620001f482620001a9565b810181811067ffffffffffffffff82111715620002165762000215620001ba565b5b80604052505050565b60006200022b6200018b565b9050620002398282620001e9565b919050565b600067ffffffffffffffff8211156200025c576200025b620001ba565b5b6200026782620001a9565b9050602081019050919050565b60005b838110156200029457808201518184015260208101905062000277565b83811115620002a4576000848401525b50505050565b6000620002c1620002bb846200023e565b6200021f565b905082815260208101848484011115620002e057620002df620001a4565b5b620002ed84828562000274565b509392505050565b600082601f8301126200030d576200030c6200019f565b5b81516200031f848260208601620002aa565b91505092915050565b600060ff82169050919050565b620003408162000328565b81146200034c57600080fd5b50565b600081519050620003608162000335565b92915050565b6000819050919050565b6200037b8162000366565b81146200038757600080fd5b50565b6000815190506200039b8162000370565b92915050565b60008060008060808587031215620003be57620003bd62000195565b5b600085015167ffffffffffffffff811115620003df57620003de6200019a565b5b620003ed87828801620002f5565b945050602085015167ffffffffffffffff8111156200041157620004106200019a565b5b6200041f87828801620002f5565b935050604062000432878288016200034f565b925050606062000445878288016200038a565b91505092959194509250565b7f4e487b7100000000000000000000000000000000000000000000000000000000600052602260045260246000fd5b600060028204905060018216806200049957607f821691505b602082108103620004af57620004ae62000451565b5b50919050565b610d2480620004c56000396000f3fe608060405234801561001057600080fd5b50600436106100935760003560e01c8063313ce56711610066578063313ce5671461013457806370a082311461015257806395d89b4114610182578063a9059cbb146101a0578063dd62ed3e146101d057610093565b806306fdde0314610098578063095ea7b3146100b657806318160ddd146100e657806323b872dd14610104575b600080fd5b6100a0610200565b6040516100ad9190610983565b60405180910390f35b6100d060048036038101906100cb9190610a3e565b61028e565b6040516100dd9190610a99565b60405180910390f35b6100ee610380565b6040516100fb9190610ac3565b60405180910390f35b61011e60048036038101906101199190610ade565b61038a565b60405161012b9190610a99565b60405180910390f35b61013c610610565b6040516101499190610b4d565b60405180910390f35b61016c60048036038101906101679190610b68565b610623565b6040516101799190610ac3565b60405180910390f35b61018a61066c565b6040516101979190610983565b60405180910390f35b6101ba60048036038101906101b59190610a3e565b6106fa565b6040516101c79190610a99565b60405180910390f35b6101ea60048036038101906101e59190610b95565b610863565b6040516101f79190610ac3565b60405180910390f35b6000805461020d90610c04565b80601f016020809104026020016040519081016040528092919081815260200182805461023990610c04565b80156102865780601f1061025b57610100808354040283529160200191610286565b820191906000526020600020905b81548152906001019060200180831161026957829003601f168201915b505050505081565b600081600460003373ffffffffffffffffffffffffffffffffffffffff1673ffffffffffffffffffffffffffffffffffffffff16815260200190815260200160002060008573ffffffffffffffffffffffffffffffffffffffff1673ffffffffffffffffffffffffffffffffffffffff168152602001908152602001600020819055508273ffffffffffffffffffffffffffffffffffffffff163373ffffffffffffffffffffffffffffffffffffffff167f8c5be1e5ebec7d5bd14f71427d1e84f3dd0314c0f7b2291e5b200ac8c7c3b9258460405161036e9190610ac3565b60405180910390a36001905092915050565b6000600554905090565b6000600360008573ffffffffffffffffffffffffffffffffffffffff1673ffffffffffffffffffffffffffffffffffffffff168152602001908152602001600020548211156103d857600080fd5b600460008573ffffffffffffffffffffffffffffffffffffffff1673ffffffffffffffffffffffffffffffffffffffff16815260200190815260200160002060003373ffffffffffffffffffffffffffffffffffffffff1673ffffffffffffffffffffffffffffffffffffffff1681526020019081526020016000205482111561046157600080fd5b81600360008673ffffffffffffffffffffffffffffffffffffffff1673ffffffffffffffffffffffffffffffffffffffff16815260200190815260200160002060008282546104b09190610c64565b9250508190555081600460008673ffffffffffffffffffffffffffffffffffffffff1673ffffffffffffffffffffffffffffffffffffffff16815260200190815260200160002060003373ffffffffffffffffffffffffffffffffffffffff1673ffffffffffffffffffffffffffffffffffffffff16815260200190815260200160002060008282546105439190610c64565b9250508190555081600360008573ffffffffffffffffffffffffffffffffffffffff1673ffffffffffffffffffffffffffffffffffffffff16815260200190815260200160002060008282546105999190610c98565b925050819055508273ffffffffffffffffffffffffffffffffffffffff168473ffffffffffffffffffffffffffffffffffffffff167fddf252ad1be2c89b69c2b068fc378daa952ba7f163c4a11628f55a4df523b3ef846040516105fd9190610ac3565b60405180910390a3600190509392505050565b600260009054906101000a900460ff1681565b6000600360008373ffffffffffffffffffffffffffffffffffffffff1673ffffffffffffffffffffffffffffffffffffffff168152602001908152602001600020549050919050565b6001805461067990610c04565b80601f01602080910402602001604051908101604052809291908181526020018280546106a590610c04565b80156106f25780601f106106c7576101008083540402835291602001916106f2565b820191906000526020600020905b8154815290600101906020018083116106d557829003601f168201915b505050505081565b6000600360003373ffffffffffffffffffffffffffffffffffffffff1673ffffffffffffffffffffffffffffffffffffffff1681526020019081526020016000205482111561074857600080fd5b81600360003373ffffffffffffffffffffffffffffffffffffffff1673ffffffffffffffffffffffffffffffffffffffff16815260200190815260200160002060008282546107979190610c64565b9250508190555081600360008573ffffffffffffffffffffffffffffffffffffffff1673ffffffffffffffffffffffffffffffffffffffff16815260200190815260200160002060008282546107ed9190610c98565b925050819055508273ffffffffffffffffffffffffffffffffffffffff163373ffffffffffffffffffffffffffffffffffffffff167fddf252ad1be2c89b69c2b068fc378daa952ba7f163c4a11628f55a4df523b3ef846040516108519190610ac3565b60405180910390a36001905092915050565b6000600460008473ffffffffffffffffffffffffffffffffffffffff1673ffffffffffffffffffffffffffffffffffffffff16815260200190815260200160002060008373ffffffffffffffffffffffffffffffffffffffff1673ffffffffffffffffffffffffffffffffffffffff16815260200190815260200160002054905092915050565b600081519050919050565b600082825260208201905092915050565b60005b83811015610924578082015181840152602081019050610909565b83811115610933576000848401525b50505050565b6000601f19601f8301169050919050565b6000610955826108ea565b61095f81856108f5565b935061096f818560208601610906565b61097881610939565b840191505092915050565b6000602082019050818103600083015261099d818461094a565b905092915050565b600080fd5b600073ffffffffffffffffffffffffffffffffffffffff82169050919050565b60006109d5826109aa565b9050919050565b6109e5816109ca565b81146109f057600080fd5b50565b600081359050610a02816109dc565b92915050565b6000819050919050565b610a1b81610a08565b8114610a2657600080fd5b50565b600081359050610a3881610a12565b92915050565b60008060408385031215610a5557610a546109a5565b5b6000610a63858286016109f3565b9250506020610a7485828601610a29565b9150509250929050565b60008115159050919050565b610a9381610a7e565b82525050565b6000602082019050610aae6000830184610a8a565b92915050565b610abd81610a08565b82525050565b6000602082019050610ad86000830184610ab4565b92915050565b600080600060608486031215610af757610af66109a5565b5b6000610b05868287016109f3565b9350506020610b16868287016109f3565b9250506040610b2786828701610a29565b9150509250925092565b600060ff82169050919050565b610b4781610b31565b82525050565b6000602082019050610b626000830184610b3e565b92915050565b600060208284031215610b7e57610b7d6109a5565b5b6000610b8c848285016109f3565b91505092915050565b60008060408385031215610bac57610bab6109a5565b5b6000610bba858286016109f3565b9250506020610bcb858286016109f3565b9150509250929050565b7f4e487b7100000000000000000000000000000000000000000000000000000000600052602260045260246000fd5b60006002820490506001821680610c1c57607f821691505b602082108103610c2f57610c2e610bd5565b5b50919050565b7f4e487b7100000000000000000000000000000000000000000000000000000000600052601160045260246000fd5b6000610c6f82610a08565b9150610c7a83610a08565b925082821015610c8d57610c8c610c35565b5b828203905092915050565b6000610ca382610a08565b9150610cae83610a08565b9250827fffffffffffffffffffffffffffffffffffffffffffffffffffffffffffffffff03821115610ce357610ce2610c35565b5b82820190509291505056fea2646970667358221220bf6c31a2a5a1261a28fa09578cf72884fa3610b8587bc6a1001e01907544a80664736f6c634300080e0033a2646970667358221220895da69cd9b58ef897153391f817ffb3b28e38d49befc86ba71abb9fed47278d64736f6c634300080e0033",
  "immutableReferences": {},
  "source": "// SPDX-License-Identifier: MIT\r\npragma solidity >=0.7.0 <0.9.0;\r\n\r\nimport \"./W2TCoinERC20.sol\";\r\n\r\ncontract Wallet {\r\n    event Deposit(address indexed sender, uint amount, uint balance);\r\n    event SubmitTransaction(\r\n        address indexed owner,\r\n        uint indexed txIndex,\r\n        address indexed to,\r\n        uint value,\r\n        bytes data\r\n    );\r\n    event ConfirmTransaction(address indexed owner, uint indexed txIndex);\r\n    event RevokeConfirmation(address indexed owner, uint indexed txIndex);\r\n    event ExecuteTransaction(address indexed owner, uint indexed txIndex);\r\n    event AddOwner(address indexed owner);\r\n    event RevokeOwner(address indexed owner);\r\n    event SubmitRequestOwner(\r\n        address indexed sender,\r\n        uint indexed reqIndex,\r\n        address indexed owner,\r\n        bytes data,\r\n        bool addOwner\r\n    );\r\n    event ConfirmRequestOwner(address indexed owner, uint indexed reqIndex);\r\n    event ExecuteRequestOwner(address indexed owner, uint indexed reqIndex);\r\n\r\n    string public name;\r\n    uint public numConfirmationsRequired;\r\n    address[] owners;\r\n    address[] tokens;\r\n    mapping(address => bool) isTokenControl;\r\n    mapping(address => bool) isOwner;\r\n    mapping(uint => mapping(address => bool)) public isConfirmed;\r\n    mapping(uint => mapping(address => bool)) public reqConfirmed;\r\n\r\n    struct Transaction {\r\n        address destination;\r\n        uint value;\r\n        bytes data;\r\n        uint numConfirmations;\r\n        bool executed;\r\n        address token;\r\n    }\r\n\r\n    struct RequestOwner {\r\n        address owner;\r\n        uint numConfirmations;\r\n        bytes data;\r\n        bool executed;\r\n        bool addOwner;\r\n    }\r\n\r\n    Transaction[] public transactions;\r\n    RequestOwner[] public requests;\r\n\r\n    // modifier\r\n    modifier onlyOwner() {\r\n        require(isOwner[msg.sender], \"Not owner\");\r\n        \r\n        _;\r\n    }\r\n\r\n    modifier txExists(uint _txIndex) {\r\n        require(_txIndex < transactions.length, \"tx does not exist\");\r\n        _;\r\n    }\r\n\r\n    modifier notExecuted(uint _txIndex) {\r\n        require(!transactions[_txIndex].executed, \"tx already executed\");\r\n        _;\r\n    }\r\n\r\n    modifier notConfirmed(uint _txIndex) {\r\n        require(!isConfirmed[_txIndex][msg.sender], \"tx already confirmed\");\r\n        _;\r\n    }\r\n\r\n    modifier reqExists(uint _reqIndex) {\r\n        require(_reqIndex < requests.length, \"request owner not exists\");\r\n        _;\r\n    }\r\n\r\n    modifier reqNotConfirmed(uint _reqIndex) {\r\n        require(!reqConfirmed[_reqIndex][msg.sender], \"req already confirmed\");\r\n        _;\r\n    }\r\n\r\n    modifier reqNotExecuted(uint _reqIndex) {\r\n        require(!requests[_reqIndex].executed, \"req already executed\");\r\n        _;\r\n    }\r\n\r\n    // Contract constructor\r\n    constructor(string memory _name, uint _numConfirmationsRequired, address[] memory _owners) payable {\r\n        require(_owners.length > 0, \"Owners required\");\r\n        require(_numConfirmationsRequired > 0 &&\r\n        _numConfirmationsRequired <= _owners.length, \"Invalid number of required confirmations\");\r\n\r\n        for(uint i = 0; i < _owners.length; i++) {\r\n            address owner = _owners[i];\r\n            require(owner != address(0), \"invalid owner\");\r\n            require(!isOwner[owner], \"owner not unique\");\r\n            isOwner[owner] = true;\r\n            owners.push(owner);\r\n        }\r\n\r\n        name = _name;\r\n        numConfirmationsRequired = _numConfirmationsRequired;\r\n\r\n    }\r\n\r\n    receive() external payable {\r\n       emit Deposit(msg.sender, msg.value, address(this).balance);\r\n    }\r\n\r\n    function submitRequestOwner(\r\n        address _owner,\r\n        bytes memory _data,\r\n        bool _addOwner\r\n    ) public onlyOwner {\r\n        require((!isOwner[_owner] && _addOwner) || (isOwner[_owner] && !_addOwner), \"Owner not unique\");\r\n        uint reqIndex = requests.length;\r\n        requests.push(\r\n            RequestOwner({\r\n                owner: _owner,\r\n                data: _data,\r\n                addOwner: _addOwner,\r\n                executed: false,\r\n                numConfirmations: 1\r\n            }));\r\n        reqConfirmed[reqIndex][msg.sender] = true;\r\n        emit SubmitRequestOwner(msg.sender, reqIndex, _owner, _data, _addOwner);\r\n    }\r\n\r\n    function confirmRequestOwner(uint _reqIndex)\r\n     public\r\n     onlyOwner\r\n     reqExists(_reqIndex)\r\n     reqNotConfirmed(_reqIndex)\r\n     reqNotExecuted(_reqIndex)\r\n    {\r\n        RequestOwner storage request = requests[_reqIndex];\r\n        request.numConfirmations += 1;\r\n        reqConfirmed[_reqIndex][msg.sender] = true;\r\n\r\n        emit ConfirmRequestOwner(msg.sender, _reqIndex);\r\n    }\r\n\r\n    function executeRequestOwner(uint _reqIndex) \r\n     public\r\n     onlyOwner\r\n     reqExists(_reqIndex)\r\n     reqNotExecuted(_reqIndex)\r\n    {\r\n        RequestOwner storage request = requests[_reqIndex];\r\n        require(request.numConfirmations >= owners.length, \"Cannot execute change Owner off wallet\");\r\n        if (request.addOwner) {\r\n            owners.push(request.owner);\r\n            isOwner[request.owner] = true;\r\n            emit AddOwner(msg.sender);\r\n        } else {\r\n            isOwner[request.owner] = false;\r\n            emit RevokeOwner(msg.sender);\r\n        }\r\n        emit ExecuteRequestOwner(msg.sender, _reqIndex);\r\n    }\r\n\r\n    function submitTransaction(\r\n        address _destination,\r\n        uint _value,\r\n        bytes memory _data,\r\n        address _token\r\n    ) public onlyOwner {\r\n        uint txIndex = transactions.length;\r\n        transactions.push(\r\n            Transaction({\r\n            destination: _destination,\r\n            value: _value,\r\n            data: _data,\r\n            executed: false,\r\n            numConfirmations: 1,\r\n            token: _token\r\n        }));\r\n        isConfirmed[txIndex][msg.sender] = true;\r\n        emit SubmitTransaction(msg.sender, txIndex, _destination, _value, _data);\r\n    }\r\n\r\n    function confirmTransaction(uint _txIndex)\r\n     public\r\n     onlyOwner\r\n     txExists(_txIndex)\r\n     notExecuted(_txIndex)\r\n     notConfirmed(_txIndex)\r\n     {\r\n        Transaction storage transaction = transactions[_txIndex];\r\n        transaction.numConfirmations += 1;\r\n        isConfirmed[_txIndex][msg.sender] = true;\r\n\r\n        emit ConfirmTransaction(msg.sender, _txIndex);\r\n     }\r\n\r\n    function executeTransaction(uint _txIndex)\r\n        public\r\n        onlyOwner\r\n        txExists(_txIndex)\r\n        notExecuted(_txIndex)\r\n    {\r\n        Transaction storage transaction = transactions[_txIndex];\r\n\r\n        require(\r\n            transaction.numConfirmations >= numConfirmationsRequired,\r\n            \"cannot execute tx\"\r\n        );\r\n\r\n        transaction.executed = true;\r\n        if(transaction.token != address(0)) {\r\n            W2TCoinERC20(transaction.token).transfer(transaction.destination, transaction.value);\r\n        } else {\r\n        (bool success, ) = transaction.destination.call{value: transaction.value}(\r\n            transaction.data\r\n        );\r\n        require(success, \"tx failed\");\r\n        }\r\n        emit ExecuteTransaction(msg.sender, _txIndex);\r\n    }\r\n\r\n    function revokeConfirmation(uint _txIndex)\r\n        public\r\n        onlyOwner\r\n        txExists(_txIndex)\r\n        notExecuted(_txIndex)\r\n    {\r\n        Transaction storage transaction = transactions[_txIndex];\r\n\r\n        require(isConfirmed[_txIndex][msg.sender], \"tx not confirmed\");\r\n\r\n        transaction.numConfirmations -= 1;\r\n        isConfirmed[_txIndex][msg.sender] = false;\r\n\r\n        emit RevokeConfirmation(msg.sender, _txIndex);\r\n    }\r\n\r\n    function getBalance() external view returns (uint) {\r\n        return address(this).balance;\r\n    }\r\n\r\n    function getOwners() public view returns (address[] memory) {\r\n        return owners;\r\n    }\r\n\r\n    function getTransactions() public view returns (Transaction[] memory) {\r\n        return transactions;\r\n    }\r\n\r\n    function getTokens() public view returns (address[] memory) {\r\n        return tokens;\r\n    }\r\n\r\n    function getTransactionCount() public view returns (uint) {\r\n        return transactions.length;\r\n    }\r\n\r\n    function getRequestOwnerCount() public view returns (uint) {\r\n        return requests.length;\r\n    }\r\n\r\n    function getTransaction(uint _txId) public txExists(_txId) view returns (\r\n            address destination,\r\n            uint256 value,\r\n            bytes memory data,\r\n            bool executed,\r\n            uint256 numConfirmations,\r\n            address token) {\r\n         Transaction storage transaction = transactions[_txId];\r\n\r\n         return (\r\n             transaction.destination,\r\n             transaction.value,\r\n             transaction.data,\r\n             transaction.executed,\r\n             transaction.numConfirmations,\r\n             transaction.token\r\n         );\r\n    }\r\n\r\n    function getRequestOwner(uint _reqId) public reqExists(_reqId) view returns (\r\n        address owner,\r\n        uint numConfirmations,\r\n        bytes memory data,\r\n        bool executed,\r\n        bool addOwner\r\n    ) {\r\n        RequestOwner storage request = requests[_reqId];\r\n        return (\r\n            request.owner,\r\n            request.numConfirmations,\r\n            request.data,\r\n            request.executed,\r\n            request.addOwner\r\n        );\r\n    }\r\n    // Token Controls\r\n\r\n    function addTokenManage(address _address) public onlyOwner {\r\n        require(!isTokenControl[_address], \"Token not unique\");\r\n        isTokenControl[_address] = true;\r\n        tokens.push(_address);\r\n    }\r\n    function createToken(string memory _name,\r\n     string memory _symbol, uint8 _decimals, uint256 _total) public onlyOwner returns(W2TCoinERC20) {\r\n         W2TCoinERC20 coin = new W2TCoinERC20(_name, _symbol, _decimals, _total);\r\n         tokens.push(address(coin));\r\n         return coin;\r\n    }\r\n    function getBalanceOfToken(address _addressToken, address _addrWallet) public view returns(uint256) {\r\n        return W2TCoinERC20(_addressToken).balanceOf(_addrWallet);\r\n    }\r\n}",
  "sourcePath": "C:\\Users\\nguye\\OneDrive\\Documents\\Multi-sig-wallet\\contracts\\Wallet.sol",
  "compiler": {
    "name": "solc",
    "version": "0.8.14+commit.80d49f37.Emscripten.clang"
  },
  "schemaVersion": "3.4.7",
  "updatedAt": "2022-08-05T04:10:11.304Z",
  "networkType": "ethereum",
  "devdoc": {
    "kind": "dev",
    "methods": {},
    "version": 1
  },
  "userdoc": {
    "kind": "user",
    "methods": {},
    "version": 1
  }
}