{
  "contractName": "Wallet",
  "abi": [
    {
      "inputs": [
        {
          "internalType": "string",
          "name": "_name",
          "type": "string"
        },
        {
          "internalType": "uint256",
          "name": "_numConfirmationsRequired",
          "type": "uint256"
        },
        {
          "internalType": "address[]",
          "name": "_owners",
          "type": "address[]"
        }
      ],
      "stateMutability": "payable",
      "type": "constructor",
      "payable": true
    },
    {
      "anonymous": false,
      "inputs": [
        {
          "indexed": true,
          "internalType": "address",
          "name": "owner",
          "type": "address"
        }
      ],
      "name": "AddOwner",
      "type": "event"
    },
    {
      "anonymous": false,
      "inputs": [
        {
          "indexed": true,
          "internalType": "address",
          "name": "owner",
          "type": "address"
        },
        {
          "indexed": true,
          "internalType": "uint256",
          "name": "txIndex",
          "type": "uint256"
        }
      ],
      "name": "ConfirmTransaction",
      "type": "event"
    },
    {
      "anonymous": false,
      "inputs": [
        {
          "indexed": true,
          "internalType": "address",
          "name": "sender",
          "type": "address"
        },
        {
          "indexed": false,
          "internalType": "uint256",
          "name": "amount",
          "type": "uint256"
        },
        {
          "indexed": false,
          "internalType": "uint256",
          "name": "balance",
          "type": "uint256"
        }
      ],
      "name": "Deposit",
      "type": "event"
    },
    {
      "anonymous": false,
      "inputs": [
        {
          "indexed": true,
          "internalType": "address",
          "name": "owner",
          "type": "address"
        },
        {
          "indexed": true,
          "internalType": "uint256",
          "name": "txIndex",
          "type": "uint256"
        }
      ],
      "name": "ExecuteTransaction",
      "type": "event"
    },
    {
      "anonymous": false,
      "inputs": [
        {
          "indexed": true,
          "internalType": "address",
          "name": "owner",
          "type": "address"
        },
        {
          "indexed": true,
          "internalType": "uint256",
          "name": "txIndex",
          "type": "uint256"
        }
      ],
      "name": "RevokeConfirmation",
      "type": "event"
    },
    {
      "anonymous": false,
      "inputs": [
        {
          "indexed": true,
          "internalType": "address",
          "name": "owner",
          "type": "address"
        },
        {
          "indexed": true,
          "internalType": "uint256",
          "name": "txIndex",
          "type": "uint256"
        },
        {
          "indexed": true,
          "internalType": "address",
          "name": "to",
          "type": "address"
        },
        {
          "indexed": false,
          "internalType": "uint256",
          "name": "value",
          "type": "uint256"
        },
        {
          "indexed": false,
          "internalType": "bytes",
          "name": "data",
          "type": "bytes"
        }
      ],
      "name": "SubmitTransaction",
      "type": "event"
    },
    {
      "inputs": [
        {
          "internalType": "uint256",
          "name": "",
          "type": "uint256"
        },
        {
          "internalType": "address",
          "name": "",
          "type": "address"
        }
      ],
      "name": "isConfirmed",
      "outputs": [
        {
          "internalType": "bool",
          "name": "",
          "type": "bool"
        }
      ],
      "stateMutability": "view",
      "type": "function",
      "constant": true
    },
    {
      "inputs": [],
      "name": "name",
      "outputs": [
        {
          "internalType": "string",
          "name": "",
          "type": "string"
        }
      ],
      "stateMutability": "view",
      "type": "function",
      "constant": true
    },
    {
      "inputs": [],
      "name": "numConfirmationsRequired",
      "outputs": [
        {
          "internalType": "uint256",
          "name": "",
          "type": "uint256"
        }
      ],
      "stateMutability": "view",
      "type": "function",
      "constant": true
    },
    {
      "inputs": [
        {
          "internalType": "uint256",
          "name": "",
          "type": "uint256"
        }
      ],
      "name": "transactions",
      "outputs": [
        {
          "internalType": "address",
          "name": "destination",
          "type": "address"
        },
        {
          "internalType": "uint256",
          "name": "value",
          "type": "uint256"
        },
        {
          "internalType": "bytes",
          "name": "data",
          "type": "bytes"
        },
        {
          "internalType": "uint256",
          "name": "numConfirmations",
          "type": "uint256"
        },
        {
          "internalType": "bool",
          "name": "executed",
          "type": "bool"
        },
        {
          "internalType": "address",
          "name": "token",
          "type": "address"
        }
      ],
      "stateMutability": "view",
      "type": "function",
      "constant": true
    },
    {
      "stateMutability": "payable",
      "type": "receive",
      "payable": true
    },
    {
      "inputs": [
        {
          "internalType": "address",
          "name": "_owner",
          "type": "address"
        }
      ],
      "name": "addOwner",
      "outputs": [],
      "stateMutability": "nonpayable",
      "type": "function"
    },
    {
      "inputs": [
        {
          "internalType": "address payable",
          "name": "_destination",
          "type": "address"
        },
        {
          "internalType": "uint256",
          "name": "_amount",
          "type": "uint256"
        }
      ],
      "name": "withdraw",
      "outputs": [],
      "stateMutability": "nonpayable",
      "type": "function"
    },
    {
      "inputs": [
        {
          "internalType": "address",
          "name": "_destination",
          "type": "address"
        },
        {
          "internalType": "uint256",
          "name": "_value",
          "type": "uint256"
        },
        {
          "internalType": "bytes",
          "name": "_data",
          "type": "bytes"
        },
        {
          "internalType": "address",
          "name": "_token",
          "type": "address"
        }
      ],
      "name": "submitTransaction",
      "outputs": [],
      "stateMutability": "nonpayable",
      "type": "function"
    },
    {
      "inputs": [
        {
          "internalType": "uint256",
          "name": "_txIndex",
          "type": "uint256"
        }
      ],
      "name": "confirmTransaction",
      "outputs": [],
      "stateMutability": "nonpayable",
      "type": "function"
    },
    {
      "inputs": [
        {
          "internalType": "uint256",
          "name": "_txIndex",
          "type": "uint256"
        }
      ],
      "name": "executeTransaction",
      "outputs": [],
      "stateMutability": "nonpayable",
      "type": "function"
    },
    {
      "inputs": [
        {
          "internalType": "uint256",
          "name": "_txIndex",
          "type": "uint256"
        }
      ],
      "name": "revokeConfirmation",
      "outputs": [],
      "stateMutability": "nonpayable",
      "type": "function"
    },
    {
      "inputs": [],
      "name": "getBalance",
      "outputs": [
        {
          "internalType": "uint256",
          "name": "",
          "type": "uint256"
        }
      ],
      "stateMutability": "view",
      "type": "function",
      "constant": true
    },
    {
      "inputs": [],
      "name": "getOwners",
      "outputs": [
        {
          "internalType": "address[]",
          "name": "",
          "type": "address[]"
        }
      ],
      "stateMutability": "view",
      "type": "function",
      "constant": true
    },
    {
      "inputs": [],
      "name": "getTransactions",
      "outputs": [
        {
          "components": [
            {
              "internalType": "address",
              "name": "destination",
              "type": "address"
            },
            {
              "internalType": "uint256",
              "name": "value",
              "type": "uint256"
            },
            {
              "internalType": "bytes",
              "name": "data",
              "type": "bytes"
            },
            {
              "internalType": "uint256",
              "name": "numConfirmations",
              "type": "uint256"
            },
            {
              "internalType": "bool",
              "name": "executed",
              "type": "bool"
            },
            {
              "internalType": "address",
              "name": "token",
              "type": "address"
            }
          ],
          "internalType": "struct Wallet.Transaction[]",
          "name": "",
          "type": "tuple[]"
        }
      ],
      "stateMutability": "view",
      "type": "function",
      "constant": true
    },
    {
      "inputs": [],
      "name": "getTokens",
      "outputs": [
        {
          "internalType": "address[]",
          "name": "",
          "type": "address[]"
        }
      ],
      "stateMutability": "view",
      "type": "function",
      "constant": true
    },
    {
      "inputs": [],
      "name": "getTransactionCount",
      "outputs": [
        {
          "internalType": "uint256",
          "name": "",
          "type": "uint256"
        }
      ],
      "stateMutability": "view",
      "type": "function",
      "constant": true
    },
    {
      "inputs": [
        {
          "internalType": "uint256",
          "name": "_txId",
          "type": "uint256"
        }
      ],
      "name": "getTransaction",
      "outputs": [
        {
          "components": [
            {
              "internalType": "address",
              "name": "destination",
              "type": "address"
            },
            {
              "internalType": "uint256",
              "name": "value",
              "type": "uint256"
            },
            {
              "internalType": "bytes",
              "name": "data",
              "type": "bytes"
            },
            {
              "internalType": "uint256",
              "name": "numConfirmations",
              "type": "uint256"
            },
            {
              "internalType": "bool",
              "name": "executed",
              "type": "bool"
            },
            {
              "internalType": "address",
              "name": "token",
              "type": "address"
            }
          ],
          "internalType": "struct Wallet.Transaction",
          "name": "",
          "type": "tuple"
        }
      ],
      "stateMutability": "view",
      "type": "function",
      "constant": true
    },
    {
      "inputs": [
        {
          "internalType": "address",
          "name": "_address",
          "type": "address"
        }
      ],
      "name": "addTokenManage",
      "outputs": [],
      "stateMutability": "nonpayable",
      "type": "function"
    },
    {
      "inputs": [
        {
          "internalType": "string",
          "name": "_name",
          "type": "string"
        },
        {
          "internalType": "string",
          "name": "_symbol",
          "type": "string"
        },
        {
          "internalType": "uint8",
          "name": "_decimals",
          "type": "uint8"
        },
        {
          "internalType": "uint256",
          "name": "_total",
          "type": "uint256"
        }
      ],
      "name": "createToken",
      "outputs": [
        {
          "internalType": "address",
          "name": "",
          "type": "address"
        }
      ],
      "stateMutability": "nonpayable",
      "type": "function"
    },
    {
      "inputs": [
        {
          "internalType": "address",
          "name": "_addressToken",
          "type": "address"
        },
        {
          "internalType": "address",
          "name": "_addrWallet",
          "type": "address"
        }
      ],
      "name": "getBalanceOfToken",
      "outputs": [
        {
          "internalType": "uint256",
          "name": "",
          "type": "uint256"
        }
      ],
      "stateMutability": "view",
      "type": "function",
      "constant": true
    }
  ],
  "bytecode": "0x6080604052604051620051a9380380620051a98339818101604052810190620000299190620006b9565b600081511162000070576040517f08c379a00000000000000000000000000000000000000000000000000000000081526004016200006790620007b4565b60405180910390fd5b60008211801562000082575080518211155b620000c4576040517f08c379a0000000000000000000000000000000000000000000000000000000008152600401620000bb906200084c565b60405180910390fd5b60005b8151811015620002c7576000828281518110620000e957620000e86200086e565b5b60200260200101519050600073ffffffffffffffffffffffffffffffffffffffff168173ffffffffffffffffffffffffffffffffffffffff160362000165576040517f08c379a00000000000000000000000000000000000000000000000000000000081526004016200015c90620008ed565b60405180910390fd5b600560008273ffffffffffffffffffffffffffffffffffffffff1673ffffffffffffffffffffffffffffffffffffffff16815260200190815260200160002060009054906101000a900460ff1615620001f5576040517f08c379a0000000000000000000000000000000000000000000000000000000008152600401620001ec906200095f565b60405180910390fd5b6001600560008373ffffffffffffffffffffffffffffffffffffffff1673ffffffffffffffffffffffffffffffffffffffff16815260200190815260200160002060006101000a81548160ff0219169083151502179055506002819080600181540180825580915050600190039060005260206000200160009091909190916101000a81548173ffffffffffffffffffffffffffffffffffffffff021916908373ffffffffffffffffffffffffffffffffffffffff160217905550508080620002be90620009b0565b915050620000c7565b508260009080519060200190620002e0929190620002f1565b508160018190555050505062000a61565b828054620002ff9062000a2c565b90600052602060002090601f0160209004810192826200032357600085556200036f565b82601f106200033e57805160ff19168380011785556200036f565b828001600101855582156200036f579182015b828111156200036e57825182559160200191906001019062000351565b5b5090506200037e919062000382565b5090565b5b808211156200039d57600081600090555060010162000383565b5090565b6000604051905090565b600080fd5b600080fd5b600080fd5b600080fd5b6000601f19601f8301169050919050565b7f4e487b7100000000000000000000000000000000000000000000000000000000600052604160045260246000fd5b6200040a82620003bf565b810181811067ffffffffffffffff821117156200042c576200042b620003d0565b5b80604052505050565b600062000441620003a1565b90506200044f8282620003ff565b919050565b600067ffffffffffffffff821115620004725762000471620003d0565b5b6200047d82620003bf565b9050602081019050919050565b60005b83811015620004aa5780820151818401526020810190506200048d565b83811115620004ba576000848401525b50505050565b6000620004d7620004d18462000454565b62000435565b905082815260208101848484011115620004f657620004f5620003ba565b5b620005038482856200048a565b509392505050565b600082601f830112620005235762000522620003b5565b5b815162000535848260208601620004c0565b91505092915050565b6000819050919050565b62000553816200053e565b81146200055f57600080fd5b50565b600081519050620005738162000548565b92915050565b600067ffffffffffffffff821115620005975762000596620003d0565b5b602082029050602081019050919050565b600080fd5b600073ffffffffffffffffffffffffffffffffffffffff82169050919050565b6000620005da82620005ad565b9050919050565b620005ec81620005cd565b8114620005f857600080fd5b50565b6000815190506200060c81620005e1565b92915050565b600062000629620006238462000579565b62000435565b905080838252602082019050602084028301858111156200064f576200064e620005a8565b5b835b818110156200067c5780620006678882620005fb565b84526020840193505060208101905062000651565b5050509392505050565b600082601f8301126200069e576200069d620003b5565b5b8151620006b084826020860162000612565b91505092915050565b600080600060608486031215620006d557620006d4620003ab565b5b600084015167ffffffffffffffff811115620006f657620006f5620003b0565b5b62000704868287016200050b565b9350506020620007178682870162000562565b925050604084015167ffffffffffffffff8111156200073b576200073a620003b0565b5b620007498682870162000686565b9150509250925092565b600082825260208201905092915050565b7f4f776e6572732072657175697265640000000000000000000000000000000000600082015250565b60006200079c600f8362000753565b9150620007a98262000764565b602082019050919050565b60006020820190508181036000830152620007cf816200078d565b9050919050565b7f496e76616c6964206e756d626572206f6620726571756972656420636f6e666960008201527f726d6174696f6e73000000000000000000000000000000000000000000000000602082015250565b60006200083460288362000753565b91506200084182620007d6565b604082019050919050565b60006020820190508181036000830152620008678162000825565b9050919050565b7f4e487b7100000000000000000000000000000000000000000000000000000000600052603260045260246000fd5b7f696e76616c6964206f776e657200000000000000000000000000000000000000600082015250565b6000620008d5600d8362000753565b9150620008e2826200089d565b602082019050919050565b600060208201905081810360008301526200090881620008c6565b9050919050565b7f6f776e6572206e6f7420756e6971756500000000000000000000000000000000600082015250565b60006200094760108362000753565b915062000954826200090f565b602082019050919050565b600060208201905081810360008301526200097a8162000938565b9050919050565b7f4e487b7100000000000000000000000000000000000000000000000000000000600052601160045260246000fd5b6000620009bd826200053e565b91507fffffffffffffffffffffffffffffffffffffffffffffffffffffffffffffffff8203620009f257620009f162000981565b5b600182019050919050565b7f4e487b7100000000000000000000000000000000000000000000000000000000600052602260045260246000fd5b6000600282049050600182168062000a4557607f821691505b60208210810362000a5b5762000a5a620009fd565b5b50919050565b6147388062000a716000396000f3fe608060405260043610620001335760003560e01c806380f59a6511620000af578063b3128fc5116200006d578063b3128fc51462000495578063c01a8c8414620004c3578063d0549b8514620004f1578063ee22610b1462000521578063f3fef3a3146200054f576200018d565b806380f59a65146200037857806383920e9014620003bc5780639ace38c214620003ec578063a0e67e2b1462000435578063aa6ca8081462000465576200018d565b80632e7700f011620000fd5780632e7700f0146200026457806333ea3dc814620002945780635754429114620002d85780636513aba314620003065780637065cb48146200034a576200018d565b806306fdde03146200019257806312065fe014620001c257806320ea8d8614620001f2578063210f5dda1462000220576200018d565b366200018d573373ffffffffffffffffffffffffffffffffffffffff167f90890809c654f11d6e72a28fa60149770a0d11ec6c92319d6ceb2bb0a4ea1a1534476040516200018392919062002108565b60405180910390a2005b600080fd5b3480156200019f57600080fd5b50620001aa6200057d565b604051620001b99190620021d9565b60405180910390f35b348015620001cf57600080fd5b50620001da62000613565b604051620001e99190620021fd565b60405180910390f35b348015620001ff57600080fd5b506200021e60048036038101906200021891906200225f565b6200061b565b005b3480156200022d57600080fd5b506200024c600480360381019062000246919062002420565b62000909565b6040516200025b919062002515565b60405180910390f35b3480156200027157600080fd5b506200027c62000a4c565b6040516200028b9190620021fd565b60405180910390f35b348015620002a157600080fd5b50620002c06004803603810190620002ba91906200225f565b62000a59565b604051620002cf919062002663565b60405180910390f35b348015620002e557600080fd5b50620003046004803603810190620002fe91906200276c565b62000c15565b005b3480156200031357600080fd5b506200033260048036038101906200032c9190620027fd565b62000e8a565b604051620003419190620021fd565b60405180910390f35b3480156200035757600080fd5b5062000376600480360381019062000370919062002844565b62000f13565b005b3480156200038557600080fd5b50620003a460048036038101906200039e919062002876565b620010db565b604051620003b39190620028ce565b60405180910390f35b348015620003c957600080fd5b50620003d46200110a565b604051620003e3919062002a50565b60405180910390f35b348015620003f957600080fd5b506200041860048036038101906200041291906200225f565b620012e0565b6040516200042c9695949392919062002ac6565b60405180910390f35b3480156200044257600080fd5b506200044d6200140a565b6040516200045c919062002bf7565b60405180910390f35b3480156200047257600080fd5b506200047d6200149a565b6040516200048c919062002bf7565b60405180910390f35b348015620004a257600080fd5b50620004c16004803603810190620004bb919062002844565b6200152a565b005b348015620004d057600080fd5b50620004ef6004803603810190620004e991906200225f565b62001707565b005b348015620004fe57600080fd5b5062000509620019f8565b604051620005189190620021fd565b60405180910390f35b3480156200052e57600080fd5b506200054d60048036038101906200054791906200225f565b620019fe565b005b3480156200055c57600080fd5b506200057b600480360381019062000575919062002c60565b62001e3f565b005b600080546200058c9062002cd6565b80601f0160208091040260200160405190810160405280929190818152602001828054620005ba9062002cd6565b80156200060b5780601f10620005df576101008083540402835291602001916200060b565b820191906000526020600020905b815481529060010190602001808311620005ed57829003601f168201915b505050505081565b600047905090565b600560003373ffffffffffffffffffffffffffffffffffffffff1673ffffffffffffffffffffffffffffffffffffffff16815260200190815260200160002060009054906101000a900460ff16620006aa576040517f08c379a0000000000000000000000000000000000000000000000000000000008152600401620006a19062002d5b565b60405180910390fd5b806007805490508110620006f5576040517f08c379a0000000000000000000000000000000000000000000000000000000008152600401620006ec9062002dcd565b60405180910390fd5b81600781815481106200070d576200070c62002def565b5b906000526020600020906005020160040160009054906101000a900460ff16156200076f576040517f08c379a0000000000000000000000000000000000000000000000000000000008152600401620007669062002e6e565b60405180910390fd5b60006007848154811062000788576200078762002def565b5b906000526020600020906005020190506006600085815260200190815260200160002060003373ffffffffffffffffffffffffffffffffffffffff1673ffffffffffffffffffffffffffffffffffffffff16815260200190815260200160002060009054906101000a900460ff1662000838576040517f08c379a00000000000000000000000000000000000000000000000000000000081526004016200082f9062002ee0565b60405180910390fd5b60018160030160008282546200084f919062002f31565b9250508190555060006006600086815260200190815260200160002060003373ffffffffffffffffffffffffffffffffffffffff1673ffffffffffffffffffffffffffffffffffffffff16815260200190815260200160002060006101000a81548160ff021916908315150217905550833373ffffffffffffffffffffffffffffffffffffffff167ff0dca620e2e81f7841d07bcc105e1704fb01475b278a9d4c236e1c62945edd5560405160405180910390a350505050565b6000600560003373ffffffffffffffffffffffffffffffffffffffff1673ffffffffffffffffffffffffffffffffffffffff16815260200190815260200160002060009054906101000a900460ff166200099a576040517f08c379a0000000000000000000000000000000000000000000000000000000008152600401620009919062002d5b565b60405180910390fd5b600085858585604051620009ae9062001fcb565b620009bd949392919062002f7d565b604051809103906000f080158015620009da573d6000803e3d6000fd5b5090506003819080600181540180825580915050600190039060005260206000200160009091909190916101000a81548173ffffffffffffffffffffffffffffffffffffffff021916908373ffffffffffffffffffffffffffffffffffffffff16021790555080915050949350505050565b6000600780549050905090565b62000a6362001fd9565b60006007838154811062000a7c5762000a7b62002def565b5b90600052602060002090600502019050806040518060c00160405290816000820160009054906101000a900473ffffffffffffffffffffffffffffffffffffffff1673ffffffffffffffffffffffffffffffffffffffff1673ffffffffffffffffffffffffffffffffffffffff1681526020016001820154815260200160028201805462000b0a9062002cd6565b80601f016020809104026020016040519081016040528092919081815260200182805462000b389062002cd6565b801562000b895780601f1062000b5d5761010080835404028352916020019162000b89565b820191906000526020600020905b81548152906001019060200180831162000b6b57829003601f168201915b50505050508152602001600382015481526020016004820160009054906101000a900460ff161515151581526020016004820160019054906101000a900473ffffffffffffffffffffffffffffffffffffffff1673ffffffffffffffffffffffffffffffffffffffff1673ffffffffffffffffffffffffffffffffffffffff1681525050915050919050565b600560003373ffffffffffffffffffffffffffffffffffffffff1673ffffffffffffffffffffffffffffffffffffffff16815260200190815260200160002060009054906101000a900460ff1662000ca4576040517f08c379a000000000000000000000000000000000000000000000000000000000815260040162000c9b9062002d5b565b60405180910390fd5b6000600780549050905060076040518060c001604052808773ffffffffffffffffffffffffffffffffffffffff168152602001868152602001858152602001600181526020016000151581526020018473ffffffffffffffffffffffffffffffffffffffff16815250908060018154018082558091505060019003906000526020600020906005020160009091909190915060008201518160000160006101000a81548173ffffffffffffffffffffffffffffffffffffffff021916908373ffffffffffffffffffffffffffffffffffffffff16021790555060208201518160010155604082015181600201908051906020019062000da59291906200203d565b506060820151816003015560808201518160040160006101000a81548160ff02191690831515021790555060a08201518160040160016101000a81548173ffffffffffffffffffffffffffffffffffffffff021916908373ffffffffffffffffffffffffffffffffffffffff16021790555050508473ffffffffffffffffffffffffffffffffffffffff16813373ffffffffffffffffffffffffffffffffffffffff167fd5a05bf70715ad82a09a756320284a1b54c9ff74cd0f8cce6219e79b563fe59d878760405162000e7b92919062002fd8565b60405180910390a45050505050565b60008273ffffffffffffffffffffffffffffffffffffffff166370a08231836040518263ffffffff1660e01b815260040162000ec7919062002515565b602060405180830381865afa15801562000ee5573d6000803e3d6000fd5b505050506040513d601f19601f8201168201806040525081019062000f0b919062003023565b905092915050565b600560003373ffffffffffffffffffffffffffffffffffffffff1673ffffffffffffffffffffffffffffffffffffffff16815260200190815260200160002060009054906101000a900460ff1662000fa2576040517f08c379a000000000000000000000000000000000000000000000000000000000815260040162000f999062002d5b565b60405180910390fd5b600560008273ffffffffffffffffffffffffffffffffffffffff1673ffffffffffffffffffffffffffffffffffffffff16815260200190815260200160002060009054906101000a900460ff161562001032576040517f08c379a00000000000000000000000000000000000000000000000000000000081526004016200102990620030a5565b60405180910390fd5b6002819080600181540180825580915050600190039060005260206000200160009091909190916101000a81548173ffffffffffffffffffffffffffffffffffffffff021916908373ffffffffffffffffffffffffffffffffffffffff1602179055508073ffffffffffffffffffffffffffffffffffffffff167fac1e9ef41b54c676ccf449d83ae6f2624bcdce8f5b93a6b48ce95874c332693d60405160405180910390a250565b60066020528160005260406000206020528060005260406000206000915091509054906101000a900460ff1681565b60606007805480602002602001604051908101604052809291908181526020016000905b82821015620012d757838290600052602060002090600502016040518060c00160405290816000820160009054906101000a900473ffffffffffffffffffffffffffffffffffffffff1673ffffffffffffffffffffffffffffffffffffffff1673ffffffffffffffffffffffffffffffffffffffff16815260200160018201548152602001600282018054620011c49062002cd6565b80601f0160208091040260200160405190810160405280929190818152602001828054620011f29062002cd6565b8015620012435780601f10620012175761010080835404028352916020019162001243565b820191906000526020600020905b8154815290600101906020018083116200122557829003601f168201915b50505050508152602001600382015481526020016004820160009054906101000a900460ff161515151581526020016004820160019054906101000a900473ffffffffffffffffffffffffffffffffffffffff1673ffffffffffffffffffffffffffffffffffffffff1673ffffffffffffffffffffffffffffffffffffffff1681525050815260200190600101906200112e565b50505050905090565b60078181548110620012f157600080fd5b90600052602060002090600502016000915090508060000160009054906101000a900473ffffffffffffffffffffffffffffffffffffffff1690806001015490806002018054620013429062002cd6565b80601f0160208091040260200160405190810160405280929190818152602001828054620013709062002cd6565b8015620013c15780601f106200139557610100808354040283529160200191620013c1565b820191906000526020600020905b815481529060010190602001808311620013a357829003601f168201915b5050505050908060030154908060040160009054906101000a900460ff16908060040160019054906101000a900473ffffffffffffffffffffffffffffffffffffffff16905086565b606060028054806020026020016040519081016040528092919081815260200182805480156200149057602002820191906000526020600020905b8160009054906101000a900473ffffffffffffffffffffffffffffffffffffffff1673ffffffffffffffffffffffffffffffffffffffff168152602001906001019080831162001445575b5050505050905090565b606060038054806020026020016040519081016040528092919081815260200182805480156200152057602002820191906000526020600020905b8160009054906101000a900473ffffffffffffffffffffffffffffffffffffffff1673ffffffffffffffffffffffffffffffffffffffff1681526020019060010190808311620014d5575b5050505050905090565b600560003373ffffffffffffffffffffffffffffffffffffffff1673ffffffffffffffffffffffffffffffffffffffff16815260200190815260200160002060009054906101000a900460ff16620015b9576040517f08c379a0000000000000000000000000000000000000000000000000000000008152600401620015b09062002d5b565b60405180910390fd5b600460008273ffffffffffffffffffffffffffffffffffffffff1673ffffffffffffffffffffffffffffffffffffffff16815260200190815260200160002060009054906101000a900460ff161562001649576040517f08c379a0000000000000000000000000000000000000000000000000000000008152600401620016409062003117565b60405180910390fd5b6001600460008373ffffffffffffffffffffffffffffffffffffffff1673ffffffffffffffffffffffffffffffffffffffff16815260200190815260200160002060006101000a81548160ff0219169083151502179055506003819080600181540180825580915050600190039060005260206000200160009091909190916101000a81548173ffffffffffffffffffffffffffffffffffffffff021916908373ffffffffffffffffffffffffffffffffffffffff16021790555050565b600560003373ffffffffffffffffffffffffffffffffffffffff1673ffffffffffffffffffffffffffffffffffffffff16815260200190815260200160002060009054906101000a900460ff1662001796576040517f08c379a00000000000000000000000000000000000000000000000000000000081526004016200178d9062002d5b565b60405180910390fd5b806007805490508110620017e1576040517f08c379a0000000000000000000000000000000000000000000000000000000008152600401620017d89062002dcd565b60405180910390fd5b8160078181548110620017f957620017f862002def565b5b906000526020600020906005020160040160009054906101000a900460ff16156200185b576040517f08c379a0000000000000000000000000000000000000000000000000000000008152600401620018529062002e6e565b60405180910390fd5b826006600082815260200190815260200160002060003373ffffffffffffffffffffffffffffffffffffffff1673ffffffffffffffffffffffffffffffffffffffff16815260200190815260200160002060009054906101000a900460ff1615620018fd576040517f08c379a0000000000000000000000000000000000000000000000000000000008152600401620018f49062003189565b60405180910390fd5b60006007858154811062001916576200191562002def565b5b9060005260206000209060050201905060018160030160008282546200193d9190620031ab565b9250508190555060016006600087815260200190815260200160002060003373ffffffffffffffffffffffffffffffffffffffff1673ffffffffffffffffffffffffffffffffffffffff16815260200190815260200160002060006101000a81548160ff021916908315150217905550843373ffffffffffffffffffffffffffffffffffffffff167f5cbe105e36805f7820e291f799d5794ff948af2a5f664e580382defb6339004160405160405180910390a35050505050565b60015481565b600560003373ffffffffffffffffffffffffffffffffffffffff1673ffffffffffffffffffffffffffffffffffffffff16815260200190815260200160002060009054906101000a900460ff1662001a8d576040517f08c379a000000000000000000000000000000000000000000000000000000000815260040162001a849062002d5b565b60405180910390fd5b80600780549050811062001ad8576040517f08c379a000000000000000000000000000000000000000000000000000000000815260040162001acf9062002dcd565b60405180910390fd5b816007818154811062001af05762001aef62002def565b5b906000526020600020906005020160040160009054906101000a900460ff161562001b52576040517f08c379a000000000000000000000000000000000000000000000000000000000815260040162001b499062002e6e565b60405180910390fd5b60006007848154811062001b6b5762001b6a62002def565b5b906000526020600020906005020190506001548160030154101562001bc7576040517f08c379a000000000000000000000000000000000000000000000000000000000815260040162001bbe9062003258565b60405180910390fd5b60018160040160006101000a81548160ff021916908315150217905550600073ffffffffffffffffffffffffffffffffffffffff168160040160019054906101000a900473ffffffffffffffffffffffffffffffffffffffff1673ffffffffffffffffffffffffffffffffffffffff161462001d13578060040160019054906101000a900473ffffffffffffffffffffffffffffffffffffffff1673ffffffffffffffffffffffffffffffffffffffff1663a9059cbb8260000160009054906101000a900473ffffffffffffffffffffffffffffffffffffffff1683600101546040518363ffffffff1660e01b815260040162001cc69291906200327a565b6020604051808303816000875af115801562001ce6573d6000803e3d6000fd5b505050506040513d601f19601f8201168201806040525081019062001d0c9190620032d8565b5062001df5565b60008160000160009054906101000a900473ffffffffffffffffffffffffffffffffffffffff1673ffffffffffffffffffffffffffffffffffffffff1682600101548360020160405162001d689190620033b5565b60006040518083038185875af1925050503d806000811462001da7576040519150601f19603f3d011682016040523d82523d6000602084013e62001dac565b606091505b505090508062001df3576040517f08c379a000000000000000000000000000000000000000000000000000000000815260040162001dea906200341e565b60405180910390fd5b505b833373ffffffffffffffffffffffffffffffffffffffff167f5445f318f4f5fcfb66592e68e0cc5822aa15664039bd5f0ffde24c5a8142b1ac60405160405180910390a350505050565b600560003373ffffffffffffffffffffffffffffffffffffffff1673ffffffffffffffffffffffffffffffffffffffff16815260200190815260200160002060009054906101000a900460ff1662001ece576040517f08c379a000000000000000000000000000000000000000000000000000000000815260040162001ec59062002d5b565b60405180910390fd5b47811062001f13576040517f08c379a000000000000000000000000000000000000000000000000000000000815260040162001f0a9062003490565b60405180910390fd5b60008273ffffffffffffffffffffffffffffffffffffffff168260405162001f3b9062003502565b60006040518083038185875af1925050503d806000811462001f7a576040519150601f19603f3d011682016040523d82523d6000602084013e62001f7f565b606091505b505090508062001fc6576040517f08c379a000000000000000000000000000000000000000000000000000000000815260040162001fbd906200341e565b60405180910390fd5b505050565b6111e9806200351a83390190565b6040518060c00160405280600073ffffffffffffffffffffffffffffffffffffffff168152602001600081526020016060815260200160008152602001600015158152602001600073ffffffffffffffffffffffffffffffffffffffff1681525090565b8280546200204b9062002cd6565b90600052602060002090601f0160209004810192826200206f5760008555620020bb565b82601f106200208a57805160ff1916838001178555620020bb565b82800160010185558215620020bb579182015b82811115620020ba5782518255916020019190600101906200209d565b5b509050620020ca9190620020ce565b5090565b5b80821115620020e9576000816000905550600101620020cf565b5090565b6000819050919050565b6200210281620020ed565b82525050565b60006040820190506200211f6000830185620020f7565b6200212e6020830184620020f7565b9392505050565b600081519050919050565b600082825260208201905092915050565b60005b838110156200217157808201518184015260208101905062002154565b8381111562002181576000848401525b50505050565b6000601f19601f8301169050919050565b6000620021a58262002135565b620021b1818562002140565b9350620021c381856020860162002151565b620021ce8162002187565b840191505092915050565b60006020820190508181036000830152620021f5818462002198565b905092915050565b6000602082019050620022146000830184620020f7565b92915050565b6000604051905090565b600080fd5b600080fd5b6200223981620020ed565b81146200224557600080fd5b50565b60008135905062002259816200222e565b92915050565b60006020828403121562002278576200227762002224565b5b6000620022888482850162002248565b91505092915050565b600080fd5b600080fd5b7f4e487b7100000000000000000000000000000000000000000000000000000000600052604160045260246000fd5b620022d58262002187565b810181811067ffffffffffffffff82111715620022f757620022f66200229b565b5b80604052505050565b60006200230c6200221a565b90506200231a8282620022ca565b919050565b600067ffffffffffffffff8211156200233d576200233c6200229b565b5b620023488262002187565b9050602081019050919050565b82818337600083830152505050565b60006200237b62002375846200231f565b62002300565b9050828152602081018484840111156200239a576200239962002296565b5b620023a784828562002355565b509392505050565b600082601f830112620023c757620023c662002291565b5b8135620023d984826020860162002364565b91505092915050565b600060ff82169050919050565b620023fa81620023e2565b81146200240657600080fd5b50565b6000813590506200241a81620023ef565b92915050565b600080600080608085870312156200243d576200243c62002224565b5b600085013567ffffffffffffffff8111156200245e576200245d62002229565b5b6200246c87828801620023af565b945050602085013567ffffffffffffffff81111562002490576200248f62002229565b5b6200249e87828801620023af565b9350506040620024b18782880162002409565b9250506060620024c48782880162002248565b91505092959194509250565b600073ffffffffffffffffffffffffffffffffffffffff82169050919050565b6000620024fd82620024d0565b9050919050565b6200250f81620024f0565b82525050565b60006020820190506200252c600083018462002504565b92915050565b6200253d81620024f0565b82525050565b6200254e81620020ed565b82525050565b600081519050919050565b600082825260208201905092915050565b60006200257d8262002554565b6200258981856200255f565b93506200259b81856020860162002151565b620025a68162002187565b840191505092915050565b60008115159050919050565b620025c881620025b1565b82525050565b600060c083016000830151620025e8600086018262002532565b506020830151620025fd602086018262002543565b506040830151848203604086015262002617828262002570565b91505060608301516200262e606086018262002543565b506080830151620026436080860182620025bd565b5060a08301516200265860a086018262002532565b508091505092915050565b600060208201905081810360008301526200267f8184620025ce565b905092915050565b6200269281620024f0565b81146200269e57600080fd5b50565b600081359050620026b28162002687565b92915050565b600067ffffffffffffffff821115620026d657620026d56200229b565b5b620026e18262002187565b9050602081019050919050565b600062002705620026ff84620026b8565b62002300565b90508281526020810184848401111562002724576200272362002296565b5b6200273184828562002355565b509392505050565b600082601f83011262002751576200275062002291565b5b813562002763848260208601620026ee565b91505092915050565b6000806000806080858703121562002789576200278862002224565b5b60006200279987828801620026a1565b9450506020620027ac8782880162002248565b935050604085013567ffffffffffffffff811115620027d057620027cf62002229565b5b620027de8782880162002739565b9250506060620027f187828801620026a1565b91505092959194509250565b6000806040838503121562002817576200281662002224565b5b60006200282785828601620026a1565b92505060206200283a85828601620026a1565b9150509250929050565b6000602082840312156200285d576200285c62002224565b5b60006200286d84828501620026a1565b91505092915050565b6000806040838503121562002890576200288f62002224565b5b6000620028a08582860162002248565b9250506020620028b385828601620026a1565b9150509250929050565b620028c881620025b1565b82525050565b6000602082019050620028e56000830184620028bd565b92915050565b600081519050919050565b600082825260208201905092915050565b6000819050602082019050919050565b600060c08301600083015162002931600086018262002532565b50602083015162002946602086018262002543565b506040830151848203604086015262002960828262002570565b915050606083015162002977606086018262002543565b5060808301516200298c6080860182620025bd565b5060a0830151620029a160a086018262002532565b508091505092915050565b6000620029ba838362002917565b905092915050565b6000602082019050919050565b6000620029dc82620028eb565b620029e88185620028f6565b935083602082028501620029fc8562002907565b8060005b8581101562002a3e578484038952815162002a1c8582620029ac565b945062002a2983620029c2565b925060208a0199505060018101905062002a00565b50829750879550505050505092915050565b6000602082019050818103600083015262002a6c8184620029cf565b905092915050565b600082825260208201905092915050565b600062002a928262002554565b62002a9e818562002a74565b935062002ab081856020860162002151565b62002abb8162002187565b840191505092915050565b600060c08201905062002add600083018962002504565b62002aec6020830188620020f7565b818103604083015262002b00818762002a85565b905062002b116060830186620020f7565b62002b206080830185620028bd565b62002b2f60a083018462002504565b979650505050505050565b600081519050919050565b600082825260208201905092915050565b6000819050602082019050919050565b600062002b74838362002532565b60208301905092915050565b6000602082019050919050565b600062002b9a8262002b3a565b62002ba6818562002b45565b935062002bb38362002b56565b8060005b8381101562002bea57815162002bce888262002b66565b975062002bdb8362002b80565b92505060018101905062002bb7565b5085935050505092915050565b6000602082019050818103600083015262002c13818462002b8d565b905092915050565b600062002c2882620024d0565b9050919050565b62002c3a8162002c1b565b811462002c4657600080fd5b50565b60008135905062002c5a8162002c2f565b92915050565b6000806040838503121562002c7a5762002c7962002224565b5b600062002c8a8582860162002c49565b925050602062002c9d8582860162002248565b9150509250929050565b7f4e487b7100000000000000000000000000000000000000000000000000000000600052602260045260246000fd5b6000600282049050600182168062002cef57607f821691505b60208210810362002d055762002d0462002ca7565b5b50919050565b7f4e6f74206f776e65720000000000000000000000000000000000000000000000600082015250565b600062002d4360098362002140565b915062002d508262002d0b565b602082019050919050565b6000602082019050818103600083015262002d768162002d34565b9050919050565b7f747820646f6573206e6f74206578697374000000000000000000000000000000600082015250565b600062002db560118362002140565b915062002dc28262002d7d565b602082019050919050565b6000602082019050818103600083015262002de88162002da6565b9050919050565b7f4e487b7100000000000000000000000000000000000000000000000000000000600052603260045260246000fd5b7f747820616c726561647920657865637574656400000000000000000000000000600082015250565b600062002e5660138362002140565b915062002e638262002e1e565b602082019050919050565b6000602082019050818103600083015262002e898162002e47565b9050919050565b7f7478206e6f7420636f6e6669726d656400000000000000000000000000000000600082015250565b600062002ec860108362002140565b915062002ed58262002e90565b602082019050919050565b6000602082019050818103600083015262002efb8162002eb9565b9050919050565b7f4e487b7100000000000000000000000000000000000000000000000000000000600052601160045260246000fd5b600062002f3e82620020ed565b915062002f4b83620020ed565b92508282101562002f615762002f6062002f02565b5b828203905092915050565b62002f7781620023e2565b82525050565b6000608082019050818103600083015262002f99818762002198565b9050818103602083015262002faf818662002198565b905062002fc0604083018562002f6c565b62002fcf6060830184620020f7565b95945050505050565b600060408201905062002fef6000830185620020f7565b818103602083015262003003818462002a85565b90509392505050565b6000815190506200301d816200222e565b92915050565b6000602082840312156200303c576200303b62002224565b5b60006200304c848285016200300c565b91505092915050565b7f4f776e6572206e6f7420756e6971756500000000000000000000000000000000600082015250565b60006200308d60108362002140565b91506200309a8262003055565b602082019050919050565b60006020820190508181036000830152620030c0816200307e565b9050919050565b7f546f6b656e206e6f7420756e6971756500000000000000000000000000000000600082015250565b6000620030ff60108362002140565b91506200310c82620030c7565b602082019050919050565b600060208201905081810360008301526200313281620030f0565b9050919050565b7f747820616c726561647920636f6e6669726d6564000000000000000000000000600082015250565b60006200317160148362002140565b91506200317e8262003139565b602082019050919050565b60006020820190508181036000830152620031a48162003162565b9050919050565b6000620031b882620020ed565b9150620031c583620020ed565b9250827fffffffffffffffffffffffffffffffffffffffffffffffffffffffffffffffff03821115620031fd57620031fc62002f02565b5b828201905092915050565b7f63616e6e6f742065786563757465207478000000000000000000000000000000600082015250565b60006200324060118362002140565b91506200324d8262003208565b602082019050919050565b60006020820190508181036000830152620032738162003231565b9050919050565b600060408201905062003291600083018562002504565b620032a06020830184620020f7565b9392505050565b620032b281620025b1565b8114620032be57600080fd5b50565b600081519050620032d281620032a7565b92915050565b600060208284031215620032f157620032f062002224565b5b60006200330184828501620032c1565b91505092915050565b600081905092915050565b60008190508160005260206000209050919050565b60008154620033398162002cd6565b6200334581866200330a565b945060018216600081146200336357600181146200337557620033ac565b60ff19831686528186019350620033ac565b620033808562003315565b60005b83811015620033a45781548189015260018201915060208101905062003383565b838801955050505b50505092915050565b6000620033c382846200332a565b915081905092915050565b7f7478206661696c65640000000000000000000000000000000000000000000000600082015250565b60006200340660098362002140565b91506200341382620033ce565b602082019050919050565b600060208201905081810360008301526200343981620033f7565b9050919050565b7f4574686572206e6f7420656e6f75676800000000000000000000000000000000600082015250565b60006200347860108362002140565b9150620034858262003440565b602082019050919050565b60006020820190508181036000830152620034ab8162003469565b9050919050565b7f77697468647261772065746820746f207b5f64657374696e6174696f6e7d0000600082015250565b6000620034ea601e836200330a565b9150620034f782620034b2565b601e82019050919050565b60006200350f82620034db565b915081905091905056fe60806040523480156200001157600080fd5b50604051620011e9380380620011e98339818101604052810190620000379190620003a1565b83600090805190602001906200004f929190620000db565b50826001908051906020019062000068929190620000db565b5081600260006101000a81548160ff021916908360ff16021790555080600581905550600554600360003373ffffffffffffffffffffffffffffffffffffffff1673ffffffffffffffffffffffffffffffffffffffff1681526020019081526020016000208190555050505050620004b5565b828054620000e99062000480565b90600052602060002090601f0160209004810192826200010d576000855562000159565b82601f106200012857805160ff191683800117855562000159565b8280016001018555821562000159579182015b82811115620001585782518255916020019190600101906200013b565b5b5090506200016891906200016c565b5090565b5b80821115620001875760008160009055506001016200016d565b5090565b6000604051905090565b600080fd5b600080fd5b600080fd5b600080fd5b6000601f19601f8301169050919050565b7f4e487b7100000000000000000000000000000000000000000000000000000000600052604160045260246000fd5b620001f482620001a9565b810181811067ffffffffffffffff82111715620002165762000215620001ba565b5b80604052505050565b60006200022b6200018b565b9050620002398282620001e9565b919050565b600067ffffffffffffffff8211156200025c576200025b620001ba565b5b6200026782620001a9565b9050602081019050919050565b60005b838110156200029457808201518184015260208101905062000277565b83811115620002a4576000848401525b50505050565b6000620002c1620002bb846200023e565b6200021f565b905082815260208101848484011115620002e057620002df620001a4565b5b620002ed84828562000274565b509392505050565b600082601f8301126200030d576200030c6200019f565b5b81516200031f848260208601620002aa565b91505092915050565b600060ff82169050919050565b620003408162000328565b81146200034c57600080fd5b50565b600081519050620003608162000335565b92915050565b6000819050919050565b6200037b8162000366565b81146200038757600080fd5b50565b6000815190506200039b8162000370565b92915050565b60008060008060808587031215620003be57620003bd62000195565b5b600085015167ffffffffffffffff811115620003df57620003de6200019a565b5b620003ed87828801620002f5565b945050602085015167ffffffffffffffff8111156200041157620004106200019a565b5b6200041f87828801620002f5565b935050604062000432878288016200034f565b925050606062000445878288016200038a565b91505092959194509250565b7f4e487b7100000000000000000000000000000000000000000000000000000000600052602260045260246000fd5b600060028204905060018216806200049957607f821691505b602082108103620004af57620004ae62000451565b5b50919050565b610d2480620004c56000396000f3fe608060405234801561001057600080fd5b50600436106100935760003560e01c8063313ce56711610066578063313ce5671461013457806370a082311461015257806395d89b4114610182578063a9059cbb146101a0578063dd62ed3e146101d057610093565b806306fdde0314610098578063095ea7b3146100b657806318160ddd146100e657806323b872dd14610104575b600080fd5b6100a0610200565b6040516100ad9190610983565b60405180910390f35b6100d060048036038101906100cb9190610a3e565b61028e565b6040516100dd9190610a99565b60405180910390f35b6100ee610380565b6040516100fb9190610ac3565b60405180910390f35b61011e60048036038101906101199190610ade565b61038a565b60405161012b9190610a99565b60405180910390f35b61013c610610565b6040516101499190610b4d565b60405180910390f35b61016c60048036038101906101679190610b68565b610623565b6040516101799190610ac3565b60405180910390f35b61018a61066c565b6040516101979190610983565b60405180910390f35b6101ba60048036038101906101b59190610a3e565b6106fa565b6040516101c79190610a99565b60405180910390f35b6101ea60048036038101906101e59190610b95565b610863565b6040516101f79190610ac3565b60405180910390f35b6000805461020d90610c04565b80601f016020809104026020016040519081016040528092919081815260200182805461023990610c04565b80156102865780601f1061025b57610100808354040283529160200191610286565b820191906000526020600020905b81548152906001019060200180831161026957829003601f168201915b505050505081565b600081600460003373ffffffffffffffffffffffffffffffffffffffff1673ffffffffffffffffffffffffffffffffffffffff16815260200190815260200160002060008573ffffffffffffffffffffffffffffffffffffffff1673ffffffffffffffffffffffffffffffffffffffff168152602001908152602001600020819055508273ffffffffffffffffffffffffffffffffffffffff163373ffffffffffffffffffffffffffffffffffffffff167f8c5be1e5ebec7d5bd14f71427d1e84f3dd0314c0f7b2291e5b200ac8c7c3b9258460405161036e9190610ac3565b60405180910390a36001905092915050565b6000600554905090565b6000600360008573ffffffffffffffffffffffffffffffffffffffff1673ffffffffffffffffffffffffffffffffffffffff168152602001908152602001600020548211156103d857600080fd5b600460008573ffffffffffffffffffffffffffffffffffffffff1673ffffffffffffffffffffffffffffffffffffffff16815260200190815260200160002060003373ffffffffffffffffffffffffffffffffffffffff1673ffffffffffffffffffffffffffffffffffffffff1681526020019081526020016000205482111561046157600080fd5b81600360008673ffffffffffffffffffffffffffffffffffffffff1673ffffffffffffffffffffffffffffffffffffffff16815260200190815260200160002060008282546104b09190610c64565b9250508190555081600460008673ffffffffffffffffffffffffffffffffffffffff1673ffffffffffffffffffffffffffffffffffffffff16815260200190815260200160002060003373ffffffffffffffffffffffffffffffffffffffff1673ffffffffffffffffffffffffffffffffffffffff16815260200190815260200160002060008282546105439190610c64565b9250508190555081600360008573ffffffffffffffffffffffffffffffffffffffff1673ffffffffffffffffffffffffffffffffffffffff16815260200190815260200160002060008282546105999190610c98565b925050819055508273ffffffffffffffffffffffffffffffffffffffff168473ffffffffffffffffffffffffffffffffffffffff167fddf252ad1be2c89b69c2b068fc378daa952ba7f163c4a11628f55a4df523b3ef846040516105fd9190610ac3565b60405180910390a3600190509392505050565b600260009054906101000a900460ff1681565b6000600360008373ffffffffffffffffffffffffffffffffffffffff1673ffffffffffffffffffffffffffffffffffffffff168152602001908152602001600020549050919050565b6001805461067990610c04565b80601f01602080910402602001604051908101604052809291908181526020018280546106a590610c04565b80156106f25780601f106106c7576101008083540402835291602001916106f2565b820191906000526020600020905b8154815290600101906020018083116106d557829003601f168201915b505050505081565b6000600360003373ffffffffffffffffffffffffffffffffffffffff1673ffffffffffffffffffffffffffffffffffffffff1681526020019081526020016000205482111561074857600080fd5b81600360003373ffffffffffffffffffffffffffffffffffffffff1673ffffffffffffffffffffffffffffffffffffffff16815260200190815260200160002060008282546107979190610c64565b9250508190555081600360008573ffffffffffffffffffffffffffffffffffffffff1673ffffffffffffffffffffffffffffffffffffffff16815260200190815260200160002060008282546107ed9190610c98565b925050819055508273ffffffffffffffffffffffffffffffffffffffff163373ffffffffffffffffffffffffffffffffffffffff167fddf252ad1be2c89b69c2b068fc378daa952ba7f163c4a11628f55a4df523b3ef846040516108519190610ac3565b60405180910390a36001905092915050565b6000600460008473ffffffffffffffffffffffffffffffffffffffff1673ffffffffffffffffffffffffffffffffffffffff16815260200190815260200160002060008373ffffffffffffffffffffffffffffffffffffffff1673ffffffffffffffffffffffffffffffffffffffff16815260200190815260200160002054905092915050565b600081519050919050565b600082825260208201905092915050565b60005b83811015610924578082015181840152602081019050610909565b83811115610933576000848401525b50505050565b6000601f19601f8301169050919050565b6000610955826108ea565b61095f81856108f5565b935061096f818560208601610906565b61097881610939565b840191505092915050565b6000602082019050818103600083015261099d818461094a565b905092915050565b600080fd5b600073ffffffffffffffffffffffffffffffffffffffff82169050919050565b60006109d5826109aa565b9050919050565b6109e5816109ca565b81146109f057600080fd5b50565b600081359050610a02816109dc565b92915050565b6000819050919050565b610a1b81610a08565b8114610a2657600080fd5b50565b600081359050610a3881610a12565b92915050565b60008060408385031215610a5557610a546109a5565b5b6000610a63858286016109f3565b9250506020610a7485828601610a29565b9150509250929050565b60008115159050919050565b610a9381610a7e565b82525050565b6000602082019050610aae6000830184610a8a565b92915050565b610abd81610a08565b82525050565b6000602082019050610ad86000830184610ab4565b92915050565b600080600060608486031215610af757610af66109a5565b5b6000610b05868287016109f3565b9350506020610b16868287016109f3565b9250506040610b2786828701610a29565b9150509250925092565b600060ff82169050919050565b610b4781610b31565b82525050565b6000602082019050610b626000830184610b3e565b92915050565b600060208284031215610b7e57610b7d6109a5565b5b6000610b8c848285016109f3565b91505092915050565b60008060408385031215610bac57610bab6109a5565b5b6000610bba858286016109f3565b9250506020610bcb858286016109f3565b9150509250929050565b7f4e487b7100000000000000000000000000000000000000000000000000000000600052602260045260246000fd5b60006002820490506001821680610c1c57607f821691505b602082108103610c2f57610c2e610bd5565b5b50919050565b7f4e487b7100000000000000000000000000000000000000000000000000000000600052601160045260246000fd5b6000610c6f82610a08565b9150610c7a83610a08565b925082821015610c8d57610c8c610c35565b5b828203905092915050565b6000610ca382610a08565b9150610cae83610a08565b9250827fffffffffffffffffffffffffffffffffffffffffffffffffffffffffffffffff03821115610ce357610ce2610c35565b5b82820190509291505056fea2646970667358221220bf6c31a2a5a1261a28fa09578cf72884fa3610b8587bc6a1001e01907544a80664736f6c634300080e0033a2646970667358221220a69b4866577192cb2a32e7f65e001c78d591897678629a16b3e29e24eb15288a64736f6c634300080e0033",
  "immutableReferences": {},
  "source": "// SPDX-License-Identifier: MIT\r\npragma solidity >=0.7.0 <0.9.0;\r\n\r\nimport \"./W2TCoinERC20.sol\";\r\n\r\ncontract Wallet {\r\n    event Deposit(address indexed sender, uint amount, uint balance);\r\n    event SubmitTransaction(\r\n        address indexed owner,\r\n        uint indexed txIndex,\r\n        address indexed to,\r\n        uint value,\r\n        bytes data\r\n    );\r\n    event ConfirmTransaction(address indexed owner, uint indexed txIndex);\r\n    event RevokeConfirmation(address indexed owner, uint indexed txIndex);\r\n    event ExecuteTransaction(address indexed owner, uint indexed txIndex);\r\n    event AddOwner(address indexed owner);\r\n\r\n\r\n    string public name;\r\n    uint public numConfirmationsRequired;\r\n    address[] owners;\r\n    address[] tokens;\r\n    mapping(address => bool) isTokenControl;\r\n    mapping(address => bool) isOwner;\r\n    mapping(uint => mapping(address => bool)) public isConfirmed;\r\n\r\n    struct Transaction {\r\n        address destination;\r\n        uint value;\r\n        bytes data;\r\n        uint numConfirmations;\r\n        bool executed;\r\n        address token;\r\n    }\r\n\r\n    Transaction[] public transactions;\r\n\r\n    // modifier\r\n    modifier onlyOwner() {\r\n        require(isOwner[msg.sender], \"Not owner\");\r\n        _;\r\n    }\r\n\r\n    modifier txExists(uint _txIndex) {\r\n        require(_txIndex < transactions.length, \"tx does not exist\");\r\n        _;\r\n    }\r\n\r\n    modifier notExecuted(uint _txIndex) {\r\n        require(!transactions[_txIndex].executed, \"tx already executed\");\r\n        _;\r\n    }\r\n\r\n    modifier notConfirmed(uint _txIndex) {\r\n        require(!isConfirmed[_txIndex][msg.sender], \"tx already confirmed\");\r\n        _;\r\n    }\r\n\r\n    // Contract constructor\r\n    constructor(string memory _name, uint _numConfirmationsRequired, address[] memory _owners) payable {\r\n        require(_owners.length > 0, \"Owners required\");\r\n        require(_numConfirmationsRequired > 0 &&\r\n        _numConfirmationsRequired <= _owners.length, \"Invalid number of required confirmations\");\r\n\r\n        for(uint i = 0; i < _owners.length; i++) {\r\n            address owner = _owners[i];\r\n            require(owner != address(0), \"invalid owner\");\r\n            require(!isOwner[owner], \"owner not unique\");\r\n            isOwner[owner] = true;\r\n            owners.push(owner);\r\n        }\r\n\r\n        name = _name;\r\n        numConfirmationsRequired = _numConfirmationsRequired;\r\n\r\n    }\r\n\r\n    receive() external payable {\r\n       emit Deposit(msg.sender, msg.value, address(this).balance);\r\n    }\r\n\r\n    function addOwner(address _owner) public onlyOwner {\r\n        require(!isOwner[_owner], \"Owner not unique\");\r\n        owners.push(_owner);\r\n        emit AddOwner(_owner);\r\n    }\r\n\r\n    function withdraw(address payable _destination, uint _amount) external onlyOwner {\r\n        require(_amount < address(this).balance, \"Ether not enough\");\r\n        (bool success, ) = _destination.call{value: _amount}(\"withdraw eth to {_destination}\");\r\n        require(success, \"tx failed\");\r\n    }\r\n    function submitTransaction(\r\n        address _destination,\r\n        uint _value,\r\n        bytes memory _data,\r\n        address _token\r\n    ) public onlyOwner {\r\n        uint txIndex = transactions.length;\r\n        transactions.push(\r\n            Transaction({\r\n            destination: _destination,\r\n            value: _value,\r\n            data: _data,\r\n            executed: false,\r\n            numConfirmations: 1,\r\n            token: _token\r\n        }));\r\n\r\n        emit SubmitTransaction(msg.sender, txIndex, _destination, _value, _data);\r\n    }\r\n\r\n    function confirmTransaction(uint _txIndex)\r\n     public\r\n     onlyOwner\r\n     txExists(_txIndex)\r\n     notExecuted(_txIndex)\r\n     notConfirmed(_txIndex)\r\n     {\r\n        Transaction storage transaction = transactions[_txIndex];\r\n        transaction.numConfirmations += 1;\r\n        isConfirmed[_txIndex][msg.sender] = true;\r\n\r\n        emit ConfirmTransaction(msg.sender, _txIndex);\r\n     }\r\n\r\n    function executeTransaction(uint _txIndex)\r\n        public\r\n        onlyOwner\r\n        txExists(_txIndex)\r\n        notExecuted(_txIndex)\r\n    {\r\n        Transaction storage transaction = transactions[_txIndex];\r\n\r\n        require(\r\n            transaction.numConfirmations >= numConfirmationsRequired,\r\n            \"cannot execute tx\"\r\n        );\r\n\r\n        transaction.executed = true;\r\n        if(transaction.token != address(0)) {\r\n            W2TCoinERC20(transaction.token).transfer(transaction.destination, transaction.value);\r\n        } else {\r\n        (bool success, ) = transaction.destination.call{value: transaction.value}(\r\n            transaction.data\r\n        );\r\n        require(success, \"tx failed\");\r\n        }\r\n        emit ExecuteTransaction(msg.sender, _txIndex);\r\n    }\r\n\r\n    function revokeConfirmation(uint _txIndex)\r\n        public\r\n        onlyOwner\r\n        txExists(_txIndex)\r\n        notExecuted(_txIndex)\r\n    {\r\n        Transaction storage transaction = transactions[_txIndex];\r\n\r\n        require(isConfirmed[_txIndex][msg.sender], \"tx not confirmed\");\r\n\r\n        transaction.numConfirmations -= 1;\r\n        isConfirmed[_txIndex][msg.sender] = false;\r\n\r\n        emit RevokeConfirmation(msg.sender, _txIndex);\r\n    }\r\n\r\n    function getBalance() external view returns (uint) {\r\n        return address(this).balance;\r\n    }\r\n\r\n    function getOwners() public view returns (address[] memory) {\r\n        return owners;\r\n    }\r\n\r\n    function getTransactions() public view returns (Transaction[] memory) {\r\n        return transactions;\r\n    }\r\n\r\n    function getTokens() public view returns (address[] memory) {\r\n        return tokens;\r\n    }\r\n\r\n    function getTransactionCount() public view returns (uint) {\r\n        return transactions.length;\r\n    }\r\n\r\n    function getTransaction(uint _txId) public view returns (Transaction memory) {\r\n         Transaction storage transaction = transactions[_txId];\r\n\r\n         return transaction;\r\n    }\r\n\r\n    // Token Controls\r\n\r\n    function addTokenManage(address _address) public onlyOwner {\r\n        require(!isTokenControl[_address], \"Token not unique\");\r\n        isTokenControl[_address] = true;\r\n        tokens.push(_address);\r\n    }\r\n    function createToken(string memory _name,\r\n     string memory _symbol, uint8 _decimals, uint256 _total) public onlyOwner returns(address) {\r\n         W2TCoinERC20 coin = new W2TCoinERC20(_name, _symbol, _decimals, _total);\r\n         tokens.push(address(coin));\r\n         return address(coin);\r\n    }\r\n    function getBalanceOfToken(address _addressToken, address _addrWallet) public view returns(uint256) {\r\n        return W2TCoinERC20(_addressToken).balanceOf(_addrWallet);\r\n    }\r\n}",
  "sourcePath": "C:\\Users\\nguye\\OneDrive\\Documents\\Multi-sig-wallet\\contracts\\Wallet.sol",
  "compiler": {
    "name": "solc",
    "version": "0.8.14+commit.80d49f37.Emscripten.clang"
  },
  "schemaVersion": "3.4.7",
  "updatedAt": "2022-07-16T23:46:15.469Z",
  "networkType": "ethereum",
  "devdoc": {
    "kind": "dev",
    "methods": {},
    "version": 1
  },
  "userdoc": {
    "kind": "user",
    "methods": {},
    "version": 1
  }
}