{
  "contractName": "Wallet",
  "abi": [
    {
      "inputs": [
        {
          "internalType": "string",
          "name": "_name",
          "type": "string"
        },
        {
          "internalType": "uint256",
          "name": "_numConfirmationsRequired",
          "type": "uint256"
        },
        {
          "internalType": "address[]",
          "name": "_owners",
          "type": "address[]"
        }
      ],
      "stateMutability": "payable",
      "type": "constructor",
      "payable": true
    },
    {
      "anonymous": false,
      "inputs": [
        {
          "indexed": true,
          "internalType": "address",
          "name": "owner",
          "type": "address"
        }
      ],
      "name": "AddOwner",
      "type": "event"
    },
    {
      "anonymous": false,
      "inputs": [
        {
          "indexed": true,
          "internalType": "address",
          "name": "owner",
          "type": "address"
        },
        {
          "indexed": true,
          "internalType": "uint256",
          "name": "txIndex",
          "type": "uint256"
        }
      ],
      "name": "ConfirmTransaction",
      "type": "event"
    },
    {
      "anonymous": false,
      "inputs": [
        {
          "indexed": true,
          "internalType": "address",
          "name": "sender",
          "type": "address"
        },
        {
          "indexed": false,
          "internalType": "uint256",
          "name": "amount",
          "type": "uint256"
        },
        {
          "indexed": false,
          "internalType": "uint256",
          "name": "balance",
          "type": "uint256"
        }
      ],
      "name": "Deposit",
      "type": "event"
    },
    {
      "anonymous": false,
      "inputs": [
        {
          "indexed": true,
          "internalType": "address",
          "name": "owner",
          "type": "address"
        },
        {
          "indexed": true,
          "internalType": "uint256",
          "name": "txIndex",
          "type": "uint256"
        }
      ],
      "name": "ExecuteTransaction",
      "type": "event"
    },
    {
      "anonymous": false,
      "inputs": [
        {
          "indexed": true,
          "internalType": "address",
          "name": "owner",
          "type": "address"
        },
        {
          "indexed": true,
          "internalType": "uint256",
          "name": "txIndex",
          "type": "uint256"
        }
      ],
      "name": "RevokeConfirmation",
      "type": "event"
    },
    {
      "anonymous": false,
      "inputs": [
        {
          "indexed": true,
          "internalType": "address",
          "name": "owner",
          "type": "address"
        },
        {
          "indexed": true,
          "internalType": "uint256",
          "name": "txIndex",
          "type": "uint256"
        },
        {
          "indexed": true,
          "internalType": "address",
          "name": "to",
          "type": "address"
        },
        {
          "indexed": false,
          "internalType": "uint256",
          "name": "value",
          "type": "uint256"
        },
        {
          "indexed": false,
          "internalType": "bytes",
          "name": "data",
          "type": "bytes"
        }
      ],
      "name": "SubmitTransaction",
      "type": "event"
    },
    {
      "inputs": [
        {
          "internalType": "uint256",
          "name": "",
          "type": "uint256"
        },
        {
          "internalType": "address",
          "name": "",
          "type": "address"
        }
      ],
      "name": "isConfirmed",
      "outputs": [
        {
          "internalType": "bool",
          "name": "",
          "type": "bool"
        }
      ],
      "stateMutability": "view",
      "type": "function",
      "constant": true
    },
    {
      "inputs": [],
      "name": "name",
      "outputs": [
        {
          "internalType": "string",
          "name": "",
          "type": "string"
        }
      ],
      "stateMutability": "view",
      "type": "function",
      "constant": true
    },
    {
      "inputs": [],
      "name": "numConfirmationsRequired",
      "outputs": [
        {
          "internalType": "uint256",
          "name": "",
          "type": "uint256"
        }
      ],
      "stateMutability": "view",
      "type": "function",
      "constant": true
    },
    {
      "inputs": [
        {
          "internalType": "uint256",
          "name": "",
          "type": "uint256"
        }
      ],
      "name": "transactions",
      "outputs": [
        {
          "internalType": "address",
          "name": "destination",
          "type": "address"
        },
        {
          "internalType": "uint256",
          "name": "value",
          "type": "uint256"
        },
        {
          "internalType": "bytes",
          "name": "data",
          "type": "bytes"
        },
        {
          "internalType": "uint256",
          "name": "numConfirmations",
          "type": "uint256"
        },
        {
          "internalType": "bool",
          "name": "executed",
          "type": "bool"
        },
        {
          "internalType": "address",
          "name": "token",
          "type": "address"
        }
      ],
      "stateMutability": "view",
      "type": "function",
      "constant": true
    },
    {
      "stateMutability": "payable",
      "type": "receive",
      "payable": true
    },
    {
      "inputs": [
        {
          "internalType": "address",
          "name": "_owner",
          "type": "address"
        }
      ],
      "name": "addOwner",
      "outputs": [],
      "stateMutability": "nonpayable",
      "type": "function"
    },
    {
      "inputs": [
        {
          "internalType": "address payable",
          "name": "_destination",
          "type": "address"
        },
        {
          "internalType": "uint256",
          "name": "_amount",
          "type": "uint256"
        }
      ],
      "name": "withdraw",
      "outputs": [],
      "stateMutability": "nonpayable",
      "type": "function"
    },
    {
      "inputs": [
        {
          "internalType": "address",
          "name": "_destination",
          "type": "address"
        },
        {
          "internalType": "uint256",
          "name": "_value",
          "type": "uint256"
        },
        {
          "internalType": "bytes",
          "name": "_data",
          "type": "bytes"
        },
        {
          "internalType": "address",
          "name": "_token",
          "type": "address"
        }
      ],
      "name": "submitTransaction",
      "outputs": [],
      "stateMutability": "nonpayable",
      "type": "function"
    },
    {
      "inputs": [
        {
          "internalType": "uint256",
          "name": "_txIndex",
          "type": "uint256"
        }
      ],
      "name": "confirmTransaction",
      "outputs": [],
      "stateMutability": "nonpayable",
      "type": "function"
    },
    {
      "inputs": [
        {
          "internalType": "uint256",
          "name": "_txIndex",
          "type": "uint256"
        }
      ],
      "name": "executeTransaction",
      "outputs": [],
      "stateMutability": "nonpayable",
      "type": "function"
    },
    {
      "inputs": [
        {
          "internalType": "uint256",
          "name": "_txIndex",
          "type": "uint256"
        }
      ],
      "name": "revokeConfirmation",
      "outputs": [],
      "stateMutability": "nonpayable",
      "type": "function"
    },
    {
      "inputs": [],
      "name": "getBalance",
      "outputs": [
        {
          "internalType": "uint256",
          "name": "",
          "type": "uint256"
        }
      ],
      "stateMutability": "view",
      "type": "function",
      "constant": true
    },
    {
      "inputs": [],
      "name": "getOwners",
      "outputs": [
        {
          "internalType": "address[]",
          "name": "",
          "type": "address[]"
        }
      ],
      "stateMutability": "view",
      "type": "function",
      "constant": true
    },
    {
      "inputs": [],
      "name": "getTransactions",
      "outputs": [
        {
          "components": [
            {
              "internalType": "address",
              "name": "destination",
              "type": "address"
            },
            {
              "internalType": "uint256",
              "name": "value",
              "type": "uint256"
            },
            {
              "internalType": "bytes",
              "name": "data",
              "type": "bytes"
            },
            {
              "internalType": "uint256",
              "name": "numConfirmations",
              "type": "uint256"
            },
            {
              "internalType": "bool",
              "name": "executed",
              "type": "bool"
            },
            {
              "internalType": "address",
              "name": "token",
              "type": "address"
            }
          ],
          "internalType": "struct Wallet.Transaction[]",
          "name": "",
          "type": "tuple[]"
        }
      ],
      "stateMutability": "view",
      "type": "function",
      "constant": true
    },
    {
      "inputs": [],
      "name": "getTokens",
      "outputs": [
        {
          "internalType": "address[]",
          "name": "",
          "type": "address[]"
        }
      ],
      "stateMutability": "view",
      "type": "function",
      "constant": true
    },
    {
      "inputs": [],
      "name": "getTransactionCount",
      "outputs": [
        {
          "internalType": "uint256",
          "name": "",
          "type": "uint256"
        }
      ],
      "stateMutability": "view",
      "type": "function",
      "constant": true
    },
    {
      "inputs": [
        {
          "internalType": "uint256",
          "name": "_txId",
          "type": "uint256"
        }
      ],
      "name": "getTransaction",
      "outputs": [
        {
          "internalType": "address",
          "name": "",
          "type": "address"
        },
        {
          "internalType": "uint256",
          "name": "",
          "type": "uint256"
        },
        {
          "internalType": "bytes",
          "name": "",
          "type": "bytes"
        },
        {
          "internalType": "uint256",
          "name": "",
          "type": "uint256"
        },
        {
          "internalType": "bool",
          "name": "",
          "type": "bool"
        },
        {
          "internalType": "address",
          "name": "",
          "type": "address"
        }
      ],
      "stateMutability": "view",
      "type": "function",
      "constant": true
    },
    {
      "inputs": [
        {
          "internalType": "address",
          "name": "_address",
          "type": "address"
        }
      ],
      "name": "addTokenManage",
      "outputs": [],
      "stateMutability": "nonpayable",
      "type": "function"
    },
    {
      "inputs": [
        {
          "internalType": "string",
          "name": "_name",
          "type": "string"
        },
        {
          "internalType": "string",
          "name": "_symbol",
          "type": "string"
        },
        {
          "internalType": "uint8",
          "name": "_decimals",
          "type": "uint8"
        },
        {
          "internalType": "uint256",
          "name": "_total",
          "type": "uint256"
        }
      ],
      "name": "createToken",
      "outputs": [
        {
          "internalType": "contract W2TCoinERC20",
          "name": "",
          "type": "address"
        }
      ],
      "stateMutability": "nonpayable",
      "type": "function"
    },
    {
      "inputs": [
        {
          "internalType": "address",
          "name": "_addressToken",
          "type": "address"
        },
        {
          "internalType": "address",
          "name": "_addrWallet",
          "type": "address"
        }
      ],
      "name": "getBalanceOfToken",
      "outputs": [
        {
          "internalType": "uint256",
          "name": "",
          "type": "uint256"
        }
      ],
      "stateMutability": "view",
      "type": "function",
      "constant": true
    }
  ],
  "bytecode": "0x6080604052604051620050a3380380620050a38339818101604052810190620000299190620006b9565b600081511162000070576040517f08c379a00000000000000000000000000000000000000000000000000000000081526004016200006790620007b4565b60405180910390fd5b60008211801562000082575080518211155b620000c4576040517f08c379a0000000000000000000000000000000000000000000000000000000008152600401620000bb906200084c565b60405180910390fd5b60005b8151811015620002c7576000828281518110620000e957620000e86200086e565b5b60200260200101519050600073ffffffffffffffffffffffffffffffffffffffff168173ffffffffffffffffffffffffffffffffffffffff160362000165576040517f08c379a00000000000000000000000000000000000000000000000000000000081526004016200015c90620008ed565b60405180910390fd5b600560008273ffffffffffffffffffffffffffffffffffffffff1673ffffffffffffffffffffffffffffffffffffffff16815260200190815260200160002060009054906101000a900460ff1615620001f5576040517f08c379a0000000000000000000000000000000000000000000000000000000008152600401620001ec906200095f565b60405180910390fd5b6001600560008373ffffffffffffffffffffffffffffffffffffffff1673ffffffffffffffffffffffffffffffffffffffff16815260200190815260200160002060006101000a81548160ff0219169083151502179055506002819080600181540180825580915050600190039060005260206000200160009091909190916101000a81548173ffffffffffffffffffffffffffffffffffffffff021916908373ffffffffffffffffffffffffffffffffffffffff160217905550508080620002be90620009b0565b915050620000c7565b508260009080519060200190620002e0929190620002f1565b508160018190555050505062000a61565b828054620002ff9062000a2c565b90600052602060002090601f0160209004810192826200032357600085556200036f565b82601f106200033e57805160ff19168380011785556200036f565b828001600101855582156200036f579182015b828111156200036e57825182559160200191906001019062000351565b5b5090506200037e919062000382565b5090565b5b808211156200039d57600081600090555060010162000383565b5090565b6000604051905090565b600080fd5b600080fd5b600080fd5b600080fd5b6000601f19601f8301169050919050565b7f4e487b7100000000000000000000000000000000000000000000000000000000600052604160045260246000fd5b6200040a82620003bf565b810181811067ffffffffffffffff821117156200042c576200042b620003d0565b5b80604052505050565b600062000441620003a1565b90506200044f8282620003ff565b919050565b600067ffffffffffffffff821115620004725762000471620003d0565b5b6200047d82620003bf565b9050602081019050919050565b60005b83811015620004aa5780820151818401526020810190506200048d565b83811115620004ba576000848401525b50505050565b6000620004d7620004d18462000454565b62000435565b905082815260208101848484011115620004f657620004f5620003ba565b5b620005038482856200048a565b509392505050565b600082601f830112620005235762000522620003b5565b5b815162000535848260208601620004c0565b91505092915050565b6000819050919050565b62000553816200053e565b81146200055f57600080fd5b50565b600081519050620005738162000548565b92915050565b600067ffffffffffffffff821115620005975762000596620003d0565b5b602082029050602081019050919050565b600080fd5b600073ffffffffffffffffffffffffffffffffffffffff82169050919050565b6000620005da82620005ad565b9050919050565b620005ec81620005cd565b8114620005f857600080fd5b50565b6000815190506200060c81620005e1565b92915050565b600062000629620006238462000579565b62000435565b905080838252602082019050602084028301858111156200064f576200064e620005a8565b5b835b818110156200067c5780620006678882620005fb565b84526020840193505060208101905062000651565b5050509392505050565b600082601f8301126200069e576200069d620003b5565b5b8151620006b084826020860162000612565b91505092915050565b600080600060608486031215620006d557620006d4620003ab565b5b600084015167ffffffffffffffff811115620006f657620006f5620003b0565b5b62000704868287016200050b565b9350506020620007178682870162000562565b925050604084015167ffffffffffffffff8111156200073b576200073a620003b0565b5b620007498682870162000686565b9150509250925092565b600082825260208201905092915050565b7f4f776e6572732072657175697265640000000000000000000000000000000000600082015250565b60006200079c600f8362000753565b9150620007a98262000764565b602082019050919050565b60006020820190508181036000830152620007cf816200078d565b9050919050565b7f496e76616c6964206e756d626572206f6620726571756972656420636f6e666960008201527f726d6174696f6e73000000000000000000000000000000000000000000000000602082015250565b60006200083460288362000753565b91506200084182620007d6565b604082019050919050565b60006020820190508181036000830152620008678162000825565b9050919050565b7f4e487b7100000000000000000000000000000000000000000000000000000000600052603260045260246000fd5b7f696e76616c6964206f776e657200000000000000000000000000000000000000600082015250565b6000620008d5600d8362000753565b9150620008e2826200089d565b602082019050919050565b600060208201905081810360008301526200090881620008c6565b9050919050565b7f6f776e6572206e6f7420756e6971756500000000000000000000000000000000600082015250565b60006200094760108362000753565b915062000954826200090f565b602082019050919050565b600060208201905081810360008301526200097a8162000938565b9050919050565b7f4e487b7100000000000000000000000000000000000000000000000000000000600052601160045260246000fd5b6000620009bd826200053e565b91507fffffffffffffffffffffffffffffffffffffffffffffffffffffffffffffffff8203620009f257620009f162000981565b5b600182019050919050565b7f4e487b7100000000000000000000000000000000000000000000000000000000600052602260045260246000fd5b6000600282049050600182168062000a4557607f821691505b60208210810362000a5b5762000a5a620009fd565b5b50919050565b6146328062000a716000396000f3fe608060405260043610620001335760003560e01c806380f59a6511620000af578063b3128fc5116200006d578063b3128fc5146200049a578063c01a8c8414620004c8578063d0549b8514620004f6578063ee22610b1462000526578063f3fef3a31462000554576200018d565b806380f59a65146200037d57806383920e9014620003c15780639ace38c214620003f1578063a0e67e2b146200043a578063aa6ca808146200046a576200018d565b80632e7700f011620000fd5780632e7700f0146200026457806333ea3dc814620002945780635754429114620002dd5780636513aba3146200030b5780637065cb48146200034f576200018d565b806306fdde03146200019257806312065fe014620001c257806320ea8d8614620001f2578063210f5dda1462000220576200018d565b366200018d573373ffffffffffffffffffffffffffffffffffffffff167f90890809c654f11d6e72a28fa60149770a0d11ec6c92319d6ceb2bb0a4ea1a1534476040516200018392919062002033565b60405180910390a2005b600080fd5b3480156200019f57600080fd5b50620001aa62000582565b604051620001b9919062002104565b60405180910390f35b348015620001cf57600080fd5b50620001da62000618565b604051620001e9919062002128565b60405180910390f35b348015620001ff57600080fd5b506200021e60048036038101906200021891906200218a565b62000620565b005b3480156200022d57600080fd5b506200024c60048036038101906200024691906200234b565b6200090e565b6040516200025b919062002486565b60405180910390f35b3480156200027157600080fd5b506200027c62000a51565b6040516200028b919062002128565b60405180910390f35b348015620002a157600080fd5b50620002c06004803603810190620002ba91906200218a565b62000a5e565b604051620002d49695949392919062002542565b60405180910390f35b348015620002ea57600080fd5b506200030960048036038101906200030391906200269b565b62000ba4565b005b3480156200031857600080fd5b506200033760048036038101906200033191906200272c565b62000e19565b60405162000346919062002128565b60405180910390f35b3480156200035c57600080fd5b506200037b600480360381019062000375919062002773565b62000ea2565b005b3480156200038a57600080fd5b50620003a96004803603810190620003a39190620027a5565b6200106a565b604051620003b89190620027ec565b60405180910390f35b348015620003ce57600080fd5b50620003d962001099565b604051620003e89190620029f3565b60405180910390f35b348015620003fe57600080fd5b506200041d60048036038101906200041791906200218a565b6200126f565b604051620004319695949392919062002542565b60405180910390f35b3480156200044757600080fd5b506200045262001399565b60405162000461919062002ad4565b60405180910390f35b3480156200047757600080fd5b506200048262001429565b60405162000491919062002ad4565b60405180910390f35b348015620004a757600080fd5b50620004c66004803603810190620004c0919062002773565b620014b9565b005b348015620004d557600080fd5b50620004f46004803603810190620004ee91906200218a565b62001696565b005b3480156200050357600080fd5b506200050e62001987565b6040516200051d919062002128565b60405180910390f35b3480156200053357600080fd5b506200055260048036038101906200054c91906200218a565b6200198d565b005b3480156200056157600080fd5b506200058060048036038101906200057a919062002b3d565b62001dce565b005b60008054620005919062002bb3565b80601f0160208091040260200160405190810160405280929190818152602001828054620005bf9062002bb3565b8015620006105780601f10620005e45761010080835404028352916020019162000610565b820191906000526020600020905b815481529060010190602001808311620005f257829003601f168201915b505050505081565b600047905090565b600560003373ffffffffffffffffffffffffffffffffffffffff1673ffffffffffffffffffffffffffffffffffffffff16815260200190815260200160002060009054906101000a900460ff16620006af576040517f08c379a0000000000000000000000000000000000000000000000000000000008152600401620006a69062002c38565b60405180910390fd5b806007805490508110620006fa576040517f08c379a0000000000000000000000000000000000000000000000000000000008152600401620006f19062002caa565b60405180910390fd5b816007818154811062000712576200071162002ccc565b5b906000526020600020906005020160040160009054906101000a900460ff161562000774576040517f08c379a00000000000000000000000000000000000000000000000000000000081526004016200076b9062002d4b565b60405180910390fd5b6000600784815481106200078d576200078c62002ccc565b5b906000526020600020906005020190506006600085815260200190815260200160002060003373ffffffffffffffffffffffffffffffffffffffff1673ffffffffffffffffffffffffffffffffffffffff16815260200190815260200160002060009054906101000a900460ff166200083d576040517f08c379a0000000000000000000000000000000000000000000000000000000008152600401620008349062002dbd565b60405180910390fd5b600181600301600082825462000854919062002e0e565b9250508190555060006006600086815260200190815260200160002060003373ffffffffffffffffffffffffffffffffffffffff1673ffffffffffffffffffffffffffffffffffffffff16815260200190815260200160002060006101000a81548160ff021916908315150217905550833373ffffffffffffffffffffffffffffffffffffffff167ff0dca620e2e81f7841d07bcc105e1704fb01475b278a9d4c236e1c62945edd5560405160405180910390a350505050565b6000600560003373ffffffffffffffffffffffffffffffffffffffff1673ffffffffffffffffffffffffffffffffffffffff16815260200190815260200160002060009054906101000a900460ff166200099f576040517f08c379a0000000000000000000000000000000000000000000000000000000008152600401620009969062002c38565b60405180910390fd5b600085858585604051620009b39062001f5a565b620009c2949392919062002e5a565b604051809103906000f080158015620009df573d6000803e3d6000fd5b5090506003819080600181540180825580915050600190039060005260206000200160009091909190916101000a81548173ffffffffffffffffffffffffffffffffffffffff021916908373ffffffffffffffffffffffffffffffffffffffff16021790555080915050949350505050565b6000600780549050905090565b60008060606000806000806007888154811062000a805762000a7f62002ccc565b5b906000526020600020906005020190508060000160009054906101000a900473ffffffffffffffffffffffffffffffffffffffff1681600101548260020183600301548460040160009054906101000a900460ff168560040160019054906101000a900473ffffffffffffffffffffffffffffffffffffffff1683805462000b089062002bb3565b80601f016020809104026020016040519081016040528092919081815260200182805462000b369062002bb3565b801562000b875780601f1062000b5b5761010080835404028352916020019162000b87565b820191906000526020600020905b81548152906001019060200180831162000b6957829003601f168201915b505050505093509650965096509650965096505091939550919395565b600560003373ffffffffffffffffffffffffffffffffffffffff1673ffffffffffffffffffffffffffffffffffffffff16815260200190815260200160002060009054906101000a900460ff1662000c33576040517f08c379a000000000000000000000000000000000000000000000000000000000815260040162000c2a9062002c38565b60405180910390fd5b6000600780549050905060076040518060c001604052808773ffffffffffffffffffffffffffffffffffffffff168152602001868152602001858152602001600181526020016000151581526020018473ffffffffffffffffffffffffffffffffffffffff16815250908060018154018082558091505060019003906000526020600020906005020160009091909190915060008201518160000160006101000a81548173ffffffffffffffffffffffffffffffffffffffff021916908373ffffffffffffffffffffffffffffffffffffffff16021790555060208201518160010155604082015181600201908051906020019062000d3492919062001f68565b506060820151816003015560808201518160040160006101000a81548160ff02191690831515021790555060a08201518160040160016101000a81548173ffffffffffffffffffffffffffffffffffffffff021916908373ffffffffffffffffffffffffffffffffffffffff16021790555050508473ffffffffffffffffffffffffffffffffffffffff16813373ffffffffffffffffffffffffffffffffffffffff167fd5a05bf70715ad82a09a756320284a1b54c9ff74cd0f8cce6219e79b563fe59d878760405162000e0a92919062002eb5565b60405180910390a45050505050565b60008273ffffffffffffffffffffffffffffffffffffffff166370a08231836040518263ffffffff1660e01b815260040162000e56919062002ee9565b602060405180830381865afa15801562000e74573d6000803e3d6000fd5b505050506040513d601f19601f8201168201806040525081019062000e9a919062002f1d565b905092915050565b600560003373ffffffffffffffffffffffffffffffffffffffff1673ffffffffffffffffffffffffffffffffffffffff16815260200190815260200160002060009054906101000a900460ff1662000f31576040517f08c379a000000000000000000000000000000000000000000000000000000000815260040162000f289062002c38565b60405180910390fd5b600560008273ffffffffffffffffffffffffffffffffffffffff1673ffffffffffffffffffffffffffffffffffffffff16815260200190815260200160002060009054906101000a900460ff161562000fc1576040517f08c379a000000000000000000000000000000000000000000000000000000000815260040162000fb89062002f9f565b60405180910390fd5b6002819080600181540180825580915050600190039060005260206000200160009091909190916101000a81548173ffffffffffffffffffffffffffffffffffffffff021916908373ffffffffffffffffffffffffffffffffffffffff1602179055508073ffffffffffffffffffffffffffffffffffffffff167fac1e9ef41b54c676ccf449d83ae6f2624bcdce8f5b93a6b48ce95874c332693d60405160405180910390a250565b60066020528160005260406000206020528060005260406000206000915091509054906101000a900460ff1681565b60606007805480602002602001604051908101604052809291908181526020016000905b828210156200126657838290600052602060002090600502016040518060c00160405290816000820160009054906101000a900473ffffffffffffffffffffffffffffffffffffffff1673ffffffffffffffffffffffffffffffffffffffff1673ffffffffffffffffffffffffffffffffffffffff16815260200160018201548152602001600282018054620011539062002bb3565b80601f0160208091040260200160405190810160405280929190818152602001828054620011819062002bb3565b8015620011d25780601f10620011a657610100808354040283529160200191620011d2565b820191906000526020600020905b815481529060010190602001808311620011b457829003601f168201915b50505050508152602001600382015481526020016004820160009054906101000a900460ff161515151581526020016004820160019054906101000a900473ffffffffffffffffffffffffffffffffffffffff1673ffffffffffffffffffffffffffffffffffffffff1673ffffffffffffffffffffffffffffffffffffffff168152505081526020019060010190620010bd565b50505050905090565b600781815481106200128057600080fd5b90600052602060002090600502016000915090508060000160009054906101000a900473ffffffffffffffffffffffffffffffffffffffff1690806001015490806002018054620012d19062002bb3565b80601f0160208091040260200160405190810160405280929190818152602001828054620012ff9062002bb3565b8015620013505780601f10620013245761010080835404028352916020019162001350565b820191906000526020600020905b8154815290600101906020018083116200133257829003601f168201915b5050505050908060030154908060040160009054906101000a900460ff16908060040160019054906101000a900473ffffffffffffffffffffffffffffffffffffffff16905086565b606060028054806020026020016040519081016040528092919081815260200182805480156200141f57602002820191906000526020600020905b8160009054906101000a900473ffffffffffffffffffffffffffffffffffffffff1673ffffffffffffffffffffffffffffffffffffffff1681526020019060010190808311620013d4575b5050505050905090565b60606003805480602002602001604051908101604052809291908181526020018280548015620014af57602002820191906000526020600020905b8160009054906101000a900473ffffffffffffffffffffffffffffffffffffffff1673ffffffffffffffffffffffffffffffffffffffff168152602001906001019080831162001464575b5050505050905090565b600560003373ffffffffffffffffffffffffffffffffffffffff1673ffffffffffffffffffffffffffffffffffffffff16815260200190815260200160002060009054906101000a900460ff1662001548576040517f08c379a00000000000000000000000000000000000000000000000000000000081526004016200153f9062002c38565b60405180910390fd5b600460008273ffffffffffffffffffffffffffffffffffffffff1673ffffffffffffffffffffffffffffffffffffffff16815260200190815260200160002060009054906101000a900460ff1615620015d8576040517f08c379a0000000000000000000000000000000000000000000000000000000008152600401620015cf9062003011565b60405180910390fd5b6001600460008373ffffffffffffffffffffffffffffffffffffffff1673ffffffffffffffffffffffffffffffffffffffff16815260200190815260200160002060006101000a81548160ff0219169083151502179055506003819080600181540180825580915050600190039060005260206000200160009091909190916101000a81548173ffffffffffffffffffffffffffffffffffffffff021916908373ffffffffffffffffffffffffffffffffffffffff16021790555050565b600560003373ffffffffffffffffffffffffffffffffffffffff1673ffffffffffffffffffffffffffffffffffffffff16815260200190815260200160002060009054906101000a900460ff1662001725576040517f08c379a00000000000000000000000000000000000000000000000000000000081526004016200171c9062002c38565b60405180910390fd5b80600780549050811062001770576040517f08c379a0000000000000000000000000000000000000000000000000000000008152600401620017679062002caa565b60405180910390fd5b816007818154811062001788576200178762002ccc565b5b906000526020600020906005020160040160009054906101000a900460ff1615620017ea576040517f08c379a0000000000000000000000000000000000000000000000000000000008152600401620017e19062002d4b565b60405180910390fd5b826006600082815260200190815260200160002060003373ffffffffffffffffffffffffffffffffffffffff1673ffffffffffffffffffffffffffffffffffffffff16815260200190815260200160002060009054906101000a900460ff16156200188c576040517f08c379a0000000000000000000000000000000000000000000000000000000008152600401620018839062003083565b60405180910390fd5b600060078581548110620018a557620018a462002ccc565b5b906000526020600020906005020190506001816003016000828254620018cc9190620030a5565b9250508190555060016006600087815260200190815260200160002060003373ffffffffffffffffffffffffffffffffffffffff1673ffffffffffffffffffffffffffffffffffffffff16815260200190815260200160002060006101000a81548160ff021916908315150217905550843373ffffffffffffffffffffffffffffffffffffffff167f5cbe105e36805f7820e291f799d5794ff948af2a5f664e580382defb6339004160405160405180910390a35050505050565b60015481565b600560003373ffffffffffffffffffffffffffffffffffffffff1673ffffffffffffffffffffffffffffffffffffffff16815260200190815260200160002060009054906101000a900460ff1662001a1c576040517f08c379a000000000000000000000000000000000000000000000000000000000815260040162001a139062002c38565b60405180910390fd5b80600780549050811062001a67576040517f08c379a000000000000000000000000000000000000000000000000000000000815260040162001a5e9062002caa565b60405180910390fd5b816007818154811062001a7f5762001a7e62002ccc565b5b906000526020600020906005020160040160009054906101000a900460ff161562001ae1576040517f08c379a000000000000000000000000000000000000000000000000000000000815260040162001ad89062002d4b565b60405180910390fd5b60006007848154811062001afa5762001af962002ccc565b5b906000526020600020906005020190506001548160030154101562001b56576040517f08c379a000000000000000000000000000000000000000000000000000000000815260040162001b4d9062003152565b60405180910390fd5b60018160040160006101000a81548160ff021916908315150217905550600073ffffffffffffffffffffffffffffffffffffffff168160040160019054906101000a900473ffffffffffffffffffffffffffffffffffffffff1673ffffffffffffffffffffffffffffffffffffffff161462001ca2578060040160019054906101000a900473ffffffffffffffffffffffffffffffffffffffff1673ffffffffffffffffffffffffffffffffffffffff1663a9059cbb8260000160009054906101000a900473ffffffffffffffffffffffffffffffffffffffff1683600101546040518363ffffffff1660e01b815260040162001c5592919062003174565b6020604051808303816000875af115801562001c75573d6000803e3d6000fd5b505050506040513d601f19601f8201168201806040525081019062001c9b9190620031d2565b5062001d84565b60008160000160009054906101000a900473ffffffffffffffffffffffffffffffffffffffff1673ffffffffffffffffffffffffffffffffffffffff1682600101548360020160405162001cf79190620032af565b60006040518083038185875af1925050503d806000811462001d36576040519150601f19603f3d011682016040523d82523d6000602084013e62001d3b565b606091505b505090508062001d82576040517f08c379a000000000000000000000000000000000000000000000000000000000815260040162001d799062003318565b60405180910390fd5b505b833373ffffffffffffffffffffffffffffffffffffffff167f5445f318f4f5fcfb66592e68e0cc5822aa15664039bd5f0ffde24c5a8142b1ac60405160405180910390a350505050565b600560003373ffffffffffffffffffffffffffffffffffffffff1673ffffffffffffffffffffffffffffffffffffffff16815260200190815260200160002060009054906101000a900460ff1662001e5d576040517f08c379a000000000000000000000000000000000000000000000000000000000815260040162001e549062002c38565b60405180910390fd5b47811062001ea2576040517f08c379a000000000000000000000000000000000000000000000000000000000815260040162001e99906200338a565b60405180910390fd5b60008273ffffffffffffffffffffffffffffffffffffffff168260405162001eca90620033fc565b60006040518083038185875af1925050503d806000811462001f09576040519150601f19603f3d011682016040523d82523d6000602084013e62001f0e565b606091505b505090508062001f55576040517f08c379a000000000000000000000000000000000000000000000000000000000815260040162001f4c9062003318565b60405180910390fd5b505050565b6111e9806200341483390190565b82805462001f769062002bb3565b90600052602060002090601f01602090048101928262001f9a576000855562001fe6565b82601f1062001fb557805160ff191683800117855562001fe6565b8280016001018555821562001fe6579182015b8281111562001fe557825182559160200191906001019062001fc8565b5b50905062001ff5919062001ff9565b5090565b5b808211156200201457600081600090555060010162001ffa565b5090565b6000819050919050565b6200202d8162002018565b82525050565b60006040820190506200204a600083018562002022565b62002059602083018462002022565b9392505050565b600081519050919050565b600082825260208201905092915050565b60005b838110156200209c5780820151818401526020810190506200207f565b83811115620020ac576000848401525b50505050565b6000601f19601f8301169050919050565b6000620020d08262002060565b620020dc81856200206b565b9350620020ee8185602086016200207c565b620020f981620020b2565b840191505092915050565b60006020820190508181036000830152620021208184620020c3565b905092915050565b60006020820190506200213f600083018462002022565b92915050565b6000604051905090565b600080fd5b600080fd5b620021648162002018565b81146200217057600080fd5b50565b600081359050620021848162002159565b92915050565b600060208284031215620021a357620021a26200214f565b5b6000620021b38482850162002173565b91505092915050565b600080fd5b600080fd5b7f4e487b7100000000000000000000000000000000000000000000000000000000600052604160045260246000fd5b6200220082620020b2565b810181811067ffffffffffffffff82111715620022225762002221620021c6565b5b80604052505050565b60006200223762002145565b9050620022458282620021f5565b919050565b600067ffffffffffffffff821115620022685762002267620021c6565b5b6200227382620020b2565b9050602081019050919050565b82818337600083830152505050565b6000620022a6620022a0846200224a565b6200222b565b905082815260208101848484011115620022c557620022c4620021c1565b5b620022d284828562002280565b509392505050565b600082601f830112620022f257620022f1620021bc565b5b8135620023048482602086016200228f565b91505092915050565b600060ff82169050919050565b62002325816200230d565b81146200233157600080fd5b50565b60008135905062002345816200231a565b92915050565b600080600080608085870312156200236857620023676200214f565b5b600085013567ffffffffffffffff81111562002389576200238862002154565b5b6200239787828801620022da565b945050602085013567ffffffffffffffff811115620023bb57620023ba62002154565b5b620023c987828801620022da565b9350506040620023dc8782880162002334565b9250506060620023ef8782880162002173565b91505092959194509250565b600073ffffffffffffffffffffffffffffffffffffffff82169050919050565b6000819050919050565b600062002446620024406200243a84620023fb565b6200241b565b620023fb565b9050919050565b60006200245a8262002425565b9050919050565b60006200246e826200244d565b9050919050565b620024808162002461565b82525050565b60006020820190506200249d600083018462002475565b92915050565b6000620024b082620023fb565b9050919050565b620024c281620024a3565b82525050565b600081519050919050565b600082825260208201905092915050565b6000620024f182620024c8565b620024fd8185620024d3565b93506200250f8185602086016200207c565b6200251a81620020b2565b840191505092915050565b60008115159050919050565b6200253c8162002525565b82525050565b600060c082019050620025596000830189620024b7565b62002568602083018862002022565b81810360408301526200257c8187620024e4565b90506200258d606083018662002022565b6200259c608083018562002531565b620025ab60a0830184620024b7565b979650505050505050565b620025c181620024a3565b8114620025cd57600080fd5b50565b600081359050620025e181620025b6565b92915050565b600067ffffffffffffffff821115620026055762002604620021c6565b5b6200261082620020b2565b9050602081019050919050565b6000620026346200262e84620025e7565b6200222b565b905082815260208101848484011115620026535762002652620021c1565b5b6200266084828562002280565b509392505050565b600082601f83011262002680576200267f620021bc565b5b8135620026928482602086016200261d565b91505092915050565b60008060008060808587031215620026b857620026b76200214f565b5b6000620026c887828801620025d0565b9450506020620026db8782880162002173565b935050604085013567ffffffffffffffff811115620026ff57620026fe62002154565b5b6200270d8782880162002668565b92505060606200272087828801620025d0565b91505092959194509250565b600080604083850312156200274657620027456200214f565b5b60006200275685828601620025d0565b92505060206200276985828601620025d0565b9150509250929050565b6000602082840312156200278c576200278b6200214f565b5b60006200279c84828501620025d0565b91505092915050565b60008060408385031215620027bf57620027be6200214f565b5b6000620027cf8582860162002173565b9250506020620027e285828601620025d0565b9150509250929050565b600060208201905062002803600083018462002531565b92915050565b600081519050919050565b600082825260208201905092915050565b6000819050602082019050919050565b6200284081620024a3565b82525050565b620028518162002018565b82525050565b600082825260208201905092915050565b60006200287582620024c8565b62002881818562002857565b9350620028938185602086016200207c565b6200289e81620020b2565b840191505092915050565b620028b48162002525565b82525050565b600060c083016000830151620028d4600086018262002835565b506020830151620028e9602086018262002846565b506040830151848203604086015262002903828262002868565b91505060608301516200291a606086018262002846565b5060808301516200292f6080860182620028a9565b5060a08301516200294460a086018262002835565b508091505092915050565b60006200295d8383620028ba565b905092915050565b6000602082019050919050565b60006200297f8262002809565b6200298b818562002814565b9350836020820285016200299f8562002825565b8060005b85811015620029e15784840389528151620029bf85826200294f565b9450620029cc8362002965565b925060208a01995050600181019050620029a3565b50829750879550505050505092915050565b6000602082019050818103600083015262002a0f818462002972565b905092915050565b600081519050919050565b600082825260208201905092915050565b6000819050602082019050919050565b600062002a51838362002835565b60208301905092915050565b6000602082019050919050565b600062002a778262002a17565b62002a83818562002a22565b935062002a908362002a33565b8060005b8381101562002ac757815162002aab888262002a43565b975062002ab88362002a5d565b92505060018101905062002a94565b5085935050505092915050565b6000602082019050818103600083015262002af0818462002a6a565b905092915050565b600062002b0582620023fb565b9050919050565b62002b178162002af8565b811462002b2357600080fd5b50565b60008135905062002b378162002b0c565b92915050565b6000806040838503121562002b575762002b566200214f565b5b600062002b678582860162002b26565b925050602062002b7a8582860162002173565b9150509250929050565b7f4e487b7100000000000000000000000000000000000000000000000000000000600052602260045260246000fd5b6000600282049050600182168062002bcc57607f821691505b60208210810362002be25762002be162002b84565b5b50919050565b7f4e6f74206f776e65720000000000000000000000000000000000000000000000600082015250565b600062002c206009836200206b565b915062002c2d8262002be8565b602082019050919050565b6000602082019050818103600083015262002c538162002c11565b9050919050565b7f747820646f6573206e6f74206578697374000000000000000000000000000000600082015250565b600062002c926011836200206b565b915062002c9f8262002c5a565b602082019050919050565b6000602082019050818103600083015262002cc58162002c83565b9050919050565b7f4e487b7100000000000000000000000000000000000000000000000000000000600052603260045260246000fd5b7f747820616c726561647920657865637574656400000000000000000000000000600082015250565b600062002d336013836200206b565b915062002d408262002cfb565b602082019050919050565b6000602082019050818103600083015262002d668162002d24565b9050919050565b7f7478206e6f7420636f6e6669726d656400000000000000000000000000000000600082015250565b600062002da56010836200206b565b915062002db28262002d6d565b602082019050919050565b6000602082019050818103600083015262002dd88162002d96565b9050919050565b7f4e487b7100000000000000000000000000000000000000000000000000000000600052601160045260246000fd5b600062002e1b8262002018565b915062002e288362002018565b92508282101562002e3e5762002e3d62002ddf565b5b828203905092915050565b62002e54816200230d565b82525050565b6000608082019050818103600083015262002e768187620020c3565b9050818103602083015262002e8c8186620020c3565b905062002e9d604083018562002e49565b62002eac606083018462002022565b95945050505050565b600060408201905062002ecc600083018562002022565b818103602083015262002ee08184620024e4565b90509392505050565b600060208201905062002f006000830184620024b7565b92915050565b60008151905062002f178162002159565b92915050565b60006020828403121562002f365762002f356200214f565b5b600062002f468482850162002f06565b91505092915050565b7f4f776e6572206e6f7420756e6971756500000000000000000000000000000000600082015250565b600062002f876010836200206b565b915062002f948262002f4f565b602082019050919050565b6000602082019050818103600083015262002fba8162002f78565b9050919050565b7f546f6b656e206e6f7420756e6971756500000000000000000000000000000000600082015250565b600062002ff96010836200206b565b9150620030068262002fc1565b602082019050919050565b600060208201905081810360008301526200302c8162002fea565b9050919050565b7f747820616c726561647920636f6e6669726d6564000000000000000000000000600082015250565b60006200306b6014836200206b565b9150620030788262003033565b602082019050919050565b600060208201905081810360008301526200309e816200305c565b9050919050565b6000620030b28262002018565b9150620030bf8362002018565b9250827fffffffffffffffffffffffffffffffffffffffffffffffffffffffffffffffff03821115620030f757620030f662002ddf565b5b828201905092915050565b7f63616e6e6f742065786563757465207478000000000000000000000000000000600082015250565b60006200313a6011836200206b565b9150620031478262003102565b602082019050919050565b600060208201905081810360008301526200316d816200312b565b9050919050565b60006040820190506200318b6000830185620024b7565b6200319a602083018462002022565b9392505050565b620031ac8162002525565b8114620031b857600080fd5b50565b600081519050620031cc81620031a1565b92915050565b600060208284031215620031eb57620031ea6200214f565b5b6000620031fb84828501620031bb565b91505092915050565b600081905092915050565b60008190508160005260206000209050919050565b60008154620032338162002bb3565b6200323f818662003204565b945060018216600081146200325d57600181146200326f57620032a6565b60ff19831686528186019350620032a6565b6200327a856200320f565b60005b838110156200329e578154818901526001820191506020810190506200327d565b838801955050505b50505092915050565b6000620032bd828462003224565b915081905092915050565b7f7478206661696c65640000000000000000000000000000000000000000000000600082015250565b6000620033006009836200206b565b91506200330d82620032c8565b602082019050919050565b600060208201905081810360008301526200333381620032f1565b9050919050565b7f4574686572206e6f7420656e6f75676800000000000000000000000000000000600082015250565b6000620033726010836200206b565b91506200337f826200333a565b602082019050919050565b60006020820190508181036000830152620033a58162003363565b9050919050565b7f77697468647261772065746820746f207b5f64657374696e6174696f6e7d0000600082015250565b6000620033e4601e8362003204565b9150620033f182620033ac565b601e82019050919050565b60006200340982620033d5565b915081905091905056fe60806040523480156200001157600080fd5b50604051620011e9380380620011e98339818101604052810190620000379190620003a1565b83600090805190602001906200004f929190620000db565b50826001908051906020019062000068929190620000db565b5081600260006101000a81548160ff021916908360ff16021790555080600581905550600554600360003373ffffffffffffffffffffffffffffffffffffffff1673ffffffffffffffffffffffffffffffffffffffff1681526020019081526020016000208190555050505050620004b5565b828054620000e99062000480565b90600052602060002090601f0160209004810192826200010d576000855562000159565b82601f106200012857805160ff191683800117855562000159565b8280016001018555821562000159579182015b82811115620001585782518255916020019190600101906200013b565b5b5090506200016891906200016c565b5090565b5b80821115620001875760008160009055506001016200016d565b5090565b6000604051905090565b600080fd5b600080fd5b600080fd5b600080fd5b6000601f19601f8301169050919050565b7f4e487b7100000000000000000000000000000000000000000000000000000000600052604160045260246000fd5b620001f482620001a9565b810181811067ffffffffffffffff82111715620002165762000215620001ba565b5b80604052505050565b60006200022b6200018b565b9050620002398282620001e9565b919050565b600067ffffffffffffffff8211156200025c576200025b620001ba565b5b6200026782620001a9565b9050602081019050919050565b60005b838110156200029457808201518184015260208101905062000277565b83811115620002a4576000848401525b50505050565b6000620002c1620002bb846200023e565b6200021f565b905082815260208101848484011115620002e057620002df620001a4565b5b620002ed84828562000274565b509392505050565b600082601f8301126200030d576200030c6200019f565b5b81516200031f848260208601620002aa565b91505092915050565b600060ff82169050919050565b620003408162000328565b81146200034c57600080fd5b50565b600081519050620003608162000335565b92915050565b6000819050919050565b6200037b8162000366565b81146200038757600080fd5b50565b6000815190506200039b8162000370565b92915050565b60008060008060808587031215620003be57620003bd62000195565b5b600085015167ffffffffffffffff811115620003df57620003de6200019a565b5b620003ed87828801620002f5565b945050602085015167ffffffffffffffff8111156200041157620004106200019a565b5b6200041f87828801620002f5565b935050604062000432878288016200034f565b925050606062000445878288016200038a565b91505092959194509250565b7f4e487b7100000000000000000000000000000000000000000000000000000000600052602260045260246000fd5b600060028204905060018216806200049957607f821691505b602082108103620004af57620004ae62000451565b5b50919050565b610d2480620004c56000396000f3fe608060405234801561001057600080fd5b50600436106100935760003560e01c8063313ce56711610066578063313ce5671461013457806370a082311461015257806395d89b4114610182578063a9059cbb146101a0578063dd62ed3e146101d057610093565b806306fdde0314610098578063095ea7b3146100b657806318160ddd146100e657806323b872dd14610104575b600080fd5b6100a0610200565b6040516100ad9190610983565b60405180910390f35b6100d060048036038101906100cb9190610a3e565b61028e565b6040516100dd9190610a99565b60405180910390f35b6100ee610380565b6040516100fb9190610ac3565b60405180910390f35b61011e60048036038101906101199190610ade565b61038a565b60405161012b9190610a99565b60405180910390f35b61013c610610565b6040516101499190610b4d565b60405180910390f35b61016c60048036038101906101679190610b68565b610623565b6040516101799190610ac3565b60405180910390f35b61018a61066c565b6040516101979190610983565b60405180910390f35b6101ba60048036038101906101b59190610a3e565b6106fa565b6040516101c79190610a99565b60405180910390f35b6101ea60048036038101906101e59190610b95565b610863565b6040516101f79190610ac3565b60405180910390f35b6000805461020d90610c04565b80601f016020809104026020016040519081016040528092919081815260200182805461023990610c04565b80156102865780601f1061025b57610100808354040283529160200191610286565b820191906000526020600020905b81548152906001019060200180831161026957829003601f168201915b505050505081565b600081600460003373ffffffffffffffffffffffffffffffffffffffff1673ffffffffffffffffffffffffffffffffffffffff16815260200190815260200160002060008573ffffffffffffffffffffffffffffffffffffffff1673ffffffffffffffffffffffffffffffffffffffff168152602001908152602001600020819055508273ffffffffffffffffffffffffffffffffffffffff163373ffffffffffffffffffffffffffffffffffffffff167f8c5be1e5ebec7d5bd14f71427d1e84f3dd0314c0f7b2291e5b200ac8c7c3b9258460405161036e9190610ac3565b60405180910390a36001905092915050565b6000600554905090565b6000600360008573ffffffffffffffffffffffffffffffffffffffff1673ffffffffffffffffffffffffffffffffffffffff168152602001908152602001600020548211156103d857600080fd5b600460008573ffffffffffffffffffffffffffffffffffffffff1673ffffffffffffffffffffffffffffffffffffffff16815260200190815260200160002060003373ffffffffffffffffffffffffffffffffffffffff1673ffffffffffffffffffffffffffffffffffffffff1681526020019081526020016000205482111561046157600080fd5b81600360008673ffffffffffffffffffffffffffffffffffffffff1673ffffffffffffffffffffffffffffffffffffffff16815260200190815260200160002060008282546104b09190610c64565b9250508190555081600460008673ffffffffffffffffffffffffffffffffffffffff1673ffffffffffffffffffffffffffffffffffffffff16815260200190815260200160002060003373ffffffffffffffffffffffffffffffffffffffff1673ffffffffffffffffffffffffffffffffffffffff16815260200190815260200160002060008282546105439190610c64565b9250508190555081600360008573ffffffffffffffffffffffffffffffffffffffff1673ffffffffffffffffffffffffffffffffffffffff16815260200190815260200160002060008282546105999190610c98565b925050819055508273ffffffffffffffffffffffffffffffffffffffff168473ffffffffffffffffffffffffffffffffffffffff167fddf252ad1be2c89b69c2b068fc378daa952ba7f163c4a11628f55a4df523b3ef846040516105fd9190610ac3565b60405180910390a3600190509392505050565b600260009054906101000a900460ff1681565b6000600360008373ffffffffffffffffffffffffffffffffffffffff1673ffffffffffffffffffffffffffffffffffffffff168152602001908152602001600020549050919050565b6001805461067990610c04565b80601f01602080910402602001604051908101604052809291908181526020018280546106a590610c04565b80156106f25780601f106106c7576101008083540402835291602001916106f2565b820191906000526020600020905b8154815290600101906020018083116106d557829003601f168201915b505050505081565b6000600360003373ffffffffffffffffffffffffffffffffffffffff1673ffffffffffffffffffffffffffffffffffffffff1681526020019081526020016000205482111561074857600080fd5b81600360003373ffffffffffffffffffffffffffffffffffffffff1673ffffffffffffffffffffffffffffffffffffffff16815260200190815260200160002060008282546107979190610c64565b9250508190555081600360008573ffffffffffffffffffffffffffffffffffffffff1673ffffffffffffffffffffffffffffffffffffffff16815260200190815260200160002060008282546107ed9190610c98565b925050819055508273ffffffffffffffffffffffffffffffffffffffff163373ffffffffffffffffffffffffffffffffffffffff167fddf252ad1be2c89b69c2b068fc378daa952ba7f163c4a11628f55a4df523b3ef846040516108519190610ac3565b60405180910390a36001905092915050565b6000600460008473ffffffffffffffffffffffffffffffffffffffff1673ffffffffffffffffffffffffffffffffffffffff16815260200190815260200160002060008373ffffffffffffffffffffffffffffffffffffffff1673ffffffffffffffffffffffffffffffffffffffff16815260200190815260200160002054905092915050565b600081519050919050565b600082825260208201905092915050565b60005b83811015610924578082015181840152602081019050610909565b83811115610933576000848401525b50505050565b6000601f19601f8301169050919050565b6000610955826108ea565b61095f81856108f5565b935061096f818560208601610906565b61097881610939565b840191505092915050565b6000602082019050818103600083015261099d818461094a565b905092915050565b600080fd5b600073ffffffffffffffffffffffffffffffffffffffff82169050919050565b60006109d5826109aa565b9050919050565b6109e5816109ca565b81146109f057600080fd5b50565b600081359050610a02816109dc565b92915050565b6000819050919050565b610a1b81610a08565b8114610a2657600080fd5b50565b600081359050610a3881610a12565b92915050565b60008060408385031215610a5557610a546109a5565b5b6000610a63858286016109f3565b9250506020610a7485828601610a29565b9150509250929050565b60008115159050919050565b610a9381610a7e565b82525050565b6000602082019050610aae6000830184610a8a565b92915050565b610abd81610a08565b82525050565b6000602082019050610ad86000830184610ab4565b92915050565b600080600060608486031215610af757610af66109a5565b5b6000610b05868287016109f3565b9350506020610b16868287016109f3565b9250506040610b2786828701610a29565b9150509250925092565b600060ff82169050919050565b610b4781610b31565b82525050565b6000602082019050610b626000830184610b3e565b92915050565b600060208284031215610b7e57610b7d6109a5565b5b6000610b8c848285016109f3565b91505092915050565b60008060408385031215610bac57610bab6109a5565b5b6000610bba858286016109f3565b9250506020610bcb858286016109f3565b9150509250929050565b7f4e487b7100000000000000000000000000000000000000000000000000000000600052602260045260246000fd5b60006002820490506001821680610c1c57607f821691505b602082108103610c2f57610c2e610bd5565b5b50919050565b7f4e487b7100000000000000000000000000000000000000000000000000000000600052601160045260246000fd5b6000610c6f82610a08565b9150610c7a83610a08565b925082821015610c8d57610c8c610c35565b5b828203905092915050565b6000610ca382610a08565b9150610cae83610a08565b9250827fffffffffffffffffffffffffffffffffffffffffffffffffffffffffffffffff03821115610ce357610ce2610c35565b5b82820190509291505056fea2646970667358221220bf6c31a2a5a1261a28fa09578cf72884fa3610b8587bc6a1001e01907544a80664736f6c634300080e0033a26469706673582212203bc2d4b59b6648818e440b7774406a987bb72c4e4d34cf47c1a55551940b4df164736f6c634300080e0033",
  "immutableReferences": {},
  "source": "// SPDX-License-Identifier: MIT\r\npragma solidity >=0.7.0 <0.9.0;\r\n\r\nimport \"./W2TCoinERC20.sol\";\r\n\r\ncontract Wallet {\r\n    event Deposit(address indexed sender, uint amount, uint balance);\r\n    event SubmitTransaction(\r\n        address indexed owner,\r\n        uint indexed txIndex,\r\n        address indexed to,\r\n        uint value,\r\n        bytes data\r\n    );\r\n    event ConfirmTransaction(address indexed owner, uint indexed txIndex);\r\n    event RevokeConfirmation(address indexed owner, uint indexed txIndex);\r\n    event ExecuteTransaction(address indexed owner, uint indexed txIndex);\r\n    event AddOwner(address indexed owner);\r\n\r\n\r\n    string public name;\r\n    uint public numConfirmationsRequired;\r\n    address[] owners;\r\n    address[] tokens;\r\n    mapping(address => bool) isTokenControl;\r\n    mapping(address => bool) isOwner;\r\n    mapping(uint => mapping(address => bool)) public isConfirmed;\r\n\r\n    struct Transaction {\r\n        address destination;\r\n        uint value;\r\n        bytes data;\r\n        uint numConfirmations;\r\n        bool executed;\r\n        address token;\r\n    }\r\n\r\n    Transaction[] public transactions;\r\n\r\n    // modifier\r\n    modifier onlyOwner() {\r\n        require(isOwner[msg.sender], \"Not owner\");\r\n        _;\r\n    }\r\n\r\n    modifier txExists(uint _txIndex) {\r\n        require(_txIndex < transactions.length, \"tx does not exist\");\r\n        _;\r\n    }\r\n\r\n    modifier notExecuted(uint _txIndex) {\r\n        require(!transactions[_txIndex].executed, \"tx already executed\");\r\n        _;\r\n    }\r\n\r\n    modifier notConfirmed(uint _txIndex) {\r\n        require(!isConfirmed[_txIndex][msg.sender], \"tx already confirmed\");\r\n        _;\r\n    }\r\n\r\n    // Contract constructor\r\n    constructor(string memory _name, uint _numConfirmationsRequired, address[] memory _owners) payable {\r\n        require(_owners.length > 0, \"Owners required\");\r\n        require(_numConfirmationsRequired > 0 &&\r\n        _numConfirmationsRequired <= _owners.length, \"Invalid number of required confirmations\");\r\n\r\n        for(uint i = 0; i < _owners.length; i++) {\r\n            address owner = _owners[i];\r\n            require(owner != address(0), \"invalid owner\");\r\n            require(!isOwner[owner], \"owner not unique\");\r\n            isOwner[owner] = true;\r\n            owners.push(owner);\r\n        }\r\n\r\n        name = _name;\r\n        numConfirmationsRequired = _numConfirmationsRequired;\r\n\r\n    }\r\n\r\n    receive() external payable {\r\n       emit Deposit(msg.sender, msg.value, address(this).balance);\r\n    }\r\n\r\n    function addOwner(address _owner) public onlyOwner {\r\n        require(!isOwner[_owner], \"Owner not unique\");\r\n        owners.push(_owner);\r\n        emit AddOwner(_owner);\r\n    }\r\n\r\n    function withdraw(address payable _destination, uint _amount) external onlyOwner {\r\n        require(_amount < address(this).balance, \"Ether not enough\");\r\n        (bool success, ) = _destination.call{value: _amount}(\"withdraw eth to {_destination}\");\r\n        require(success, \"tx failed\");\r\n    }\r\n    function submitTransaction(\r\n        address _destination,\r\n        uint _value,\r\n        bytes memory _data,\r\n        address _token\r\n    ) public onlyOwner {\r\n        uint txIndex = transactions.length;\r\n        transactions.push(\r\n            Transaction({\r\n            destination: _destination,\r\n            value: _value,\r\n            data: _data,\r\n            executed: false,\r\n            numConfirmations: 1,\r\n            token: _token\r\n        }));\r\n\r\n        emit SubmitTransaction(msg.sender, txIndex, _destination, _value, _data);\r\n    }\r\n\r\n    function confirmTransaction(uint _txIndex)\r\n     public\r\n     onlyOwner\r\n     txExists(_txIndex)\r\n     notExecuted(_txIndex)\r\n     notConfirmed(_txIndex)\r\n     {\r\n        Transaction storage transaction = transactions[_txIndex];\r\n        transaction.numConfirmations += 1;\r\n        isConfirmed[_txIndex][msg.sender] = true;\r\n\r\n        emit ConfirmTransaction(msg.sender, _txIndex);\r\n     }\r\n\r\n    function executeTransaction(uint _txIndex)\r\n        public\r\n        onlyOwner\r\n        txExists(_txIndex)\r\n        notExecuted(_txIndex)\r\n    {\r\n        Transaction storage transaction = transactions[_txIndex];\r\n\r\n        require(\r\n            transaction.numConfirmations >= numConfirmationsRequired,\r\n            \"cannot execute tx\"\r\n        );\r\n\r\n        transaction.executed = true;\r\n        if(transaction.token != address(0)) {\r\n            W2TCoinERC20(transaction.token).transfer(transaction.destination, transaction.value);\r\n        } else {\r\n        (bool success, ) = transaction.destination.call{value: transaction.value}(\r\n            transaction.data\r\n        );\r\n        require(success, \"tx failed\");\r\n        }\r\n        emit ExecuteTransaction(msg.sender, _txIndex);\r\n    }\r\n\r\n    function revokeConfirmation(uint _txIndex)\r\n        public\r\n        onlyOwner\r\n        txExists(_txIndex)\r\n        notExecuted(_txIndex)\r\n    {\r\n        Transaction storage transaction = transactions[_txIndex];\r\n\r\n        require(isConfirmed[_txIndex][msg.sender], \"tx not confirmed\");\r\n\r\n        transaction.numConfirmations -= 1;\r\n        isConfirmed[_txIndex][msg.sender] = false;\r\n\r\n        emit RevokeConfirmation(msg.sender, _txIndex);\r\n    }\r\n\r\n    function getBalance() external view returns (uint) {\r\n        return address(this).balance;\r\n    }\r\n\r\n    function getOwners() public view returns (address[] memory) {\r\n        return owners;\r\n    }\r\n\r\n    function getTransactions() public view returns (Transaction[] memory) {\r\n        return transactions;\r\n    }\r\n\r\n    function getTokens() public view returns (address[] memory) {\r\n        return tokens;\r\n    }\r\n\r\n    function getTransactionCount() public view returns (uint) {\r\n        return transactions.length;\r\n    }\r\n\r\n    function getTransaction(uint _txId) public view returns (address, uint, bytes memory, uint, bool, address) {\r\n         Transaction storage transaction = transactions[_txId];\r\n\r\n         return (\r\n             transaction.destination,\r\n             transaction.value,\r\n             transaction.data,\r\n             transaction.numConfirmations,\r\n             transaction.executed,\r\n             transaction.token\r\n         );\r\n    }\r\n\r\n    // Token Controls\r\n\r\n    function addTokenManage(address _address) public onlyOwner {\r\n        require(!isTokenControl[_address], \"Token not unique\");\r\n        isTokenControl[_address] = true;\r\n        tokens.push(_address);\r\n    }\r\n    function createToken(string memory _name,\r\n     string memory _symbol, uint8 _decimals, uint256 _total) public onlyOwner returns(W2TCoinERC20) {\r\n         W2TCoinERC20 coin = new W2TCoinERC20(_name, _symbol, _decimals, _total);\r\n         tokens.push(address(coin));\r\n         return coin;\r\n    }\r\n    function getBalanceOfToken(address _addressToken, address _addrWallet) public view returns(uint256) {\r\n        return W2TCoinERC20(_addressToken).balanceOf(_addrWallet);\r\n    }\r\n}",
  "sourcePath": "C:\\Users\\nguye\\OneDrive\\Documents\\Multi-sig-wallet\\contracts\\Wallet.sol",
  "compiler": {
    "name": "solc",
    "version": "0.8.14+commit.80d49f37.Emscripten.clang"
  },
  "schemaVersion": "3.4.7",
  "updatedAt": "2022-07-16T16:10:15.850Z",
  "networkType": "ethereum",
  "devdoc": {
    "kind": "dev",
    "methods": {},
    "version": 1
  },
  "userdoc": {
    "kind": "user",
    "methods": {},
    "version": 1
  }
}